:020000021000EC
:10200000C00A0020853A01000F2303000F230300BC
:10201000AF3403000F2303000F2303000F2303003B
:102020000F2303000F2303000F2303000F230300DC
:102030000F23030044E00300C13603000F23030015
:102040000F2303000F2303000F2303000F230300BC
:102050000F2303000F2303000F2303000F230300AC
:102060000F2303000F230300C18101000F2303008E
:102070000F2303000F2303000F2303000F2303008C
:102080000F2303000F2303000F2303000F2303007C
:102090000F230300213E01000F2303000F23030041
:1020A0000F2303000F2303000F2303000F2303005C
:1020B0000F2303000F2303000F2303007D030300FE
:1020C00001C40300FDC3030011FB02000DC40300A3
:1020D00005C403004103030009C4030075E00200C6
:1020E000BD0303000F2303000F2303000F2303008E
:1020F0000F2303000F2303000F2303000F2303000C
:102100000F2303000F2303000F2303000F230300FB
:102110000F2303000F2303000F2303000F230300EB
:102120000F2303000F2303000F2303000F230300DB
:042130000F23030076
:10213400F0B5114A114C124E00F00105E3695F0736
:1021440013D40DB9334213D103EA00078F4207D1E8
:102154000B4A1A40002A0CBF00206FF00100F0BDAA
:10216400013AEBD16FF00200F9E74FF0FF30F6E7E8
:102174006FF00100F3E700BF809698000000035061
:10218400020001000B4B70B5D96911F480310DD1F7
:1021940001244FF48072084E084DF46020462C64EC
:1021A4001A61FFF7C5FF3464EC6070BD6FF0010085
:1021B400FBE700BF00000350001003500020035051
:1021C40038B541F6713301220C4C0021E569E36313
:1021D4000B4B05F48035DA60022360612120236112
:1021E400FFF7A6FF10B92120FFF7A2FF0122054B3C
:1021F400DA600DB10023E36338BD00BF0000035073
:10220400001003500020035070B5134C6061E36963
:102214005B071ED40E4656F8043B8D18A361AE42EC
:102224000BD10423002121202361FFF781FF58B93A
:10223400BDE870402120FFF77BBF08210846FFF767
:1022440077FF10B10423236170BD56F8043BA361EA
:10225400E5E74FF0FF30F7E7000003502DE9F843BE
:10226400154641F67132164B8946DF69DA6301225D
:10227400064603F58053DFF8508007F48037DA60B0
:1022840055B9284601220F4BDA601FB10022A3F58D
:102294000053DA63BDE8F88306F5005404EA080441
:1022A400A41BAC4228BF2C46494622463046FFF7C1
:1022B400ABFF0028E6D12644A1442D1BE0E700BF74
:1022C400000003500020035000E0FFFF0000000066
:1022E000013800D0FCE77047002370B5404C05462C
:1022F0008AB0E36318B1008823600CF009FA3D4806
:1023000029F0B4FB3C4E3D4B304633603C4B736090
:1023100024F0C0FF0021304617F026FB32A3D3E99A
:102320000023A062C4E9062324F0BFFFD4E90623FA
:1023300019431043C4E90601CDE900014FF0FF3312
:102340004FF0FF32A06A29F0E5FB02224FF0FF3187
:10235000A06A29F0E4FB01200BF036FE4FF4007375
:1023600000222849A06A29F02BFCB0F5007F38D163
:1023700000239422CDE9073309933C23CDE90332AE
:1023800005939623A06A03A9069317F0D5FB35B3EE
:10239000287C0CF05DFA0546F0B9A06A29F0ECFC47
:1023A0000CF004FA0BF0F2FD20B14FF48070002124
:1023B00008F07AFE0BF0FAFD20B14FF40060002126
:1023C00008F072FE25F097F8012017F023FB0E4A63
:1023D0000E49A06A24F05CFF28460AB070BDFF20B9
:1023E000D7E70725F8E700BF0DD50155200000000D
:1023F000300B0020690345EC841D00204DDE0100F8
:10240000941D0020841B00203972030079720300A0
:102410000348044B834202D0034B03B11847704773
:10242000A8320020A832002000000000064B074917
:10243000C91A891048BF0131491003D0044B0BB1B0
:1024400001481847704700BFA8320020A83200207A
:102450000000000010B5064C237843B9FFF7D8FF01
:10246000044B13B10448AFF300800123237010BD67
:102470009E250020000000001810040008B5054B40
:102480001BB105490548AFF30080BDE80840FFF7E0
:10249000CDBF00BF00000000980D00201810040000
:1024A000A3F5803A704700BF174B002B08BF134BB2
:1024B0009D46FFF7F5FF00218B460F461348144A4F
:1024C000121A2AF044F80E4B002B00D098470D4BFF
:1024D000002B00D098470020002104000D000D487B
:1024E000002802D00C48AFF300801EF013FB200040
:1024F000290000F0F5FD1EF01FF900BF00000800E4
:102500000000000000000000C00A0020C00A0020F7
:10251000C02E00200000000000000000032138B59C
:1025200008250C4C08461FF003FC04F50053C3F8C3
:10253000A05044F2506004F5805405F07FFE142052
:10254000C4F8A05005F07AFEBDE8384003210846E3
:102550001FF0F3BB00C0035010B50D4C282005F050
:102560006DFED4F8A4301A070FD4502005F066FE93
:10257000D4F8A43013F0080F0CBFFF200120044A48
:10258000D2F8A4301B07FBD410BD0020F7E700BF32
:1025900000C00350F8B50024072501270C4ED6F8DB
:1025A000A4301907FBD5282005F048FED6F8A42052
:1025B00007FA05F312074ABF1C439C43E4B2D6F85E
:1025C000A4301B07FBD4013DE9D22046F8BD00BF73
:1025D00000C003502DE9F0410446FFF79FFFFFF7CD
:1025E000BBFF134BDFF85C801870FFF7D3FF88F850
:1025F0000000FFF7CFFF0F4E0F4F3070FFF7CAFFFD
:102600003870FFF7C7FF0D4D2870FFF7C3FF0C4B65
:1026100098F800201880337839782D7813440B44CB
:102620002B44984208BFC4E90012BDE8F08100BF06
:102630009F250020A2250020A1250020A025002004
:1026400040250020A3250020044B054A05491B789E
:1026500012780978044800F065BA00BF600E0020C7
:10266000640E00207E320020A4250020012337B50F
:102670004FF4FA610093164A0023164801F0E4F87B
:10268000054610B3144C1549206820F053FE144938
:10269000206820F04FFE1FF0E6FD1FF0E5FD114B16
:1026A000114A009311495B23206820F043FE104932
:1026B0002B46104A206820F03DFE284601F068F8BD
:1026C0000D49206820F036FEFEE703B030BD00BFA4
:1026D00049260100B00D0020A00E0020E1DC03001F
:1026E000E8D403007CD50300EDD40300F6D4030046
:1026F00005D5030002D503001AD5030070B50368A1
:10270000A24A23F47F4323F00703934288B005D005
:102710009F4A934200F0E58008B070BD0DF10F01B3
:1027200004A80FF003FF9B4C054608B39A492068A4
:1027300020F000FE9949206820F0FCFD1FF093FD79
:102740001FF092FD964B974A009397498223206889
:1027500020F0F0FD95492B46954A206820F0EAFDCF
:10276000284601F015F89349206820F0E3FDFEE7C4
:10277000BDF8143001465BBAADF818309DF813303F
:1027800008228DF81A30FF238DF81B30FE238DF8B8
:102790001C309DF8123018208DF81D30BDF8103017
:1027A0005BBAADF81E3006AB0FF092FE054608B3DB
:1027B0007949206820F0BEFD7849206820F0BAFDF4
:1027C0001FF051FD1FF050FD754B764A009376497E
:1027D0009223206820F0AEFD74492B46744A20688D
:1027E00020F0A8FD284600F0D3FF7249206820F0B1
:1027F000A1FDFEE7704E30460FF0CCFD054608B354
:102800006549206820F096FD6449206820F092FD1B
:102810001FF029FD1FF028FD614B624A00936249B9
:102820009623206820F086FD60492B46604A206888
:1028300020F080FD284600F0ABFF5E49206820F0C4
:1028400079FDFEE74FF4C8620090034611463078E8
:102850000FF0B8FD054608B34F49206820F06AFD27
:102860004E49206820F066FD1FF0FDFC1FF0FCFCC7
:102870004B4B4C4A00934C499F23206820F05AFD53
:102880004A492B464A4A206820F054FD284600F069
:102890007FFF4849206820F04DFDFEE70721307892
:1028A0000FF0B2FD454B40F2FF2206214448CDE92E
:1028B00000532B461FF047FA1FF0D5FC1FF0D4FC45
:1028C0004049206820F036FD31783D4800F0C4F8DA
:1028D0001FF0C9FC1FF0C8FC3B49206820F02AFD0E
:1028E0001AE7354C022120780FF0B8FD054610B3E9
:1028F000284C2949206820F01DFD2849206820F037
:1029000019FD1FF0B0FC1FF0AFFC254B254A0093CA
:102910002549BF23206820F00DFD24492B46244A79
:10292000206820F007FD284600F032FF214920688A
:1029300020F000FDFEE7022120780FF0A3FD054600
:1029400000283FF4E9AE134C1349206820F0F2FC54
:102950001249206820F0EEFC1FF085FC1FF084FC7B
:102960000F4B104A00931049C423206820F0E2FC6A
:102970000E492B460E4A206820F0DCFC284600F069
:1029800007FF0C49206820F0D5FCFEE7A0000100FD
:10299000A0000601A00E0020E1DC0300E8D4030043
:1029A0006DD50300EDD40300F6D4030005D5030074
:1029B00002D503001AD503007E3200202BD5030078
:1029C000A42500203BD5030057D5030030B5154C96
:1029D00085B01FF05EFC002000F0C0F9204600F03A
:1029E00025FA00256FF07F432046C4E901351FF02A
:1029F000E7F920460C491FF047FB0C4B20461A68AC
:102A0000511C1960052301210093CDE90131D2B297
:102A10002B4607491FF04BFB05B0BDE8304000F0E6
:102A2000C5B900BFEC0D00203CD60300E80D002026
:102A300085D503001FB50246052301200093CDE98B
:102A40000130002303481FF032FB05B05DF804EBB2
:102A500000F0ACB9EC0D002037B50C460346027F00
:102A6000002120460FF0E4FC0546F8B1234C244930
:102A7000206820F05FFC2349206820F05BFC1FF0F9
:102A8000F2FB1FF0F1FB204B204A00932049322338
:102A9000206820F04FFC1F4A1F49206820F04AFCA4
:102AA0002A461E49206820F045FCFEE70221204608
:102AB0000FF0E8FC0546F8B1104C1149206820F0F1
:102AC00039FC1049206820F035FC1FF0CCFB1FF0CA
:102AD000CBFB0D4B0D4A00930D493723206820F0A6
:102AE00029FC0C4A0C49206820F024FC2A460C4999
:102AF000206820F01FFCFEE703B030BDA00E0020D0
:102B0000E1DC0300E8D403002FD603008FD50300D7
:102B1000F6D403009FD50300B2D50300CAD5030045
:102B2000F6D5030037B504460846A372190A130AFE
:102B30006172E371227223460021227F0FF078FC3C
:102B40000546F8B1104C1149206820F0F3FB1049FC
:102B5000206820F0EFFB1FF086FB1FF085FB0D4B7C
:102B60000D4A00930D494623206820F0E3FB0C4AF0
:102B70000C49206820F0DEFB2A460B49206820F033
:102B8000D9FBFEE703B030BDA00E0020E1DC03005E
:102B9000E8D403001FD603008FD50300F6D403004A
:102BA0009FD50300B2D50300CAD503000123054A0F
:102BB000411100F01F00834052F82100034342F806
:102BC00021307047180E0020044B1B681BB1044BCA
:102BD0000360002070470120704700BF280E0020CE
:102BE0004225002070B50D4C246884B10C4C85182A
:102BF0002688B5420DDC6688CD18B54209DC52B195
:102C00004BB1A0800020E1802281638170BD012052
:102C1000FCE70420FAE70520F8E700BF280E0020B3
:102C2000422500202DE9F74F9946494B1B68002BA0
:102C300000F08A80B9F1000718BF01274FF0010B9F
:102C4000DFF814A17F42BAF80650BAF80A300D9E98
:102C50002B449BB20D440093FFB2ADB21EB9304677
:102C600003B0BDE8F08F009AABB29A426ED9BAF8C1
:102C70000840BAF80430241AB44228BF3446184435
:102C8000344B361B80B203EB0512B9F1000F0AD0AA
:102C9000072C26D80444A04216D32846FFF786FF07
:102CA00001350020DAE7072C1BD80444A042F4D2F7
:102CB000C108535C00F0070C0BFA0CFC23EA0C0370
:102CC0000130535480B2F1E7C10812F801C000F09E
:102CD00007030BFA03F343EA0C030130535480B2A9
:102CE000D9E74FEAD00C02EBD00810F007000BD167
:102CF000E20839464046019229F029FC14F0070405
:102D0000019ACAD0904412E00BFA00F312F80CE0DA
:102D1000DBB2591E5B420EEA01013B400838194301
:102D2000044402F80C10E20808F10108E1D10BFAA2
:102D300004F498F80030E4B26242013C13403C4095
:102D4000234388F80030A8E7012688E7042686E7B1
:102D5000280E0020C12500204225002037B5114D46
:102D60002B68EBB900F044F9044610B1012003B020
:102D700030BD00F031F928600028F7D00288418882
:102D8000094B20461A801A814A43598059819C80F8
:102D9000DC802146CDE9004223462246FFF742FF70
:102DA0000020E4E7280E0020422500202DE9F8430A
:102DB000002301251A461A4FDFF86C803C68DFF8C3
:102DC0006490D8F80000D61841888E4207D3FBB92A
:102DD00010220021124829F0BAFB002012E0E1077E
:102DE00008D50133D118C9060ABF57F82540640831
:102DF0000135E6E753B109EB021100F0B1F80346E3
:102E000010B10720BDE8F883721CEBE70132E9E757
:102E1000044901EB021100F0A3F80028D8D0F0E734
:102E2000180E0020C1250020280E002030B50546D0
:102E300087B000B300226FF07F43C0E9012301A8EF
:102E4000FFF7C2FE044698B9019BCDE902001A883B
:102E50002B605B88013A013B284602A90492059346
:102E60001EF0D9FF044618B9284604491FF00CF992
:102E7000204607B030BD0524FAE700BF6CD9030037
:102E80000122014B1A61704700F0035013B504464C
:102E900004F0AAFF00230122217BCDE90032490082
:102EA000B0FBF1F1024A034820F045FB02B010BD2F
:102EB000812E0100400E0020F7B508260E4C054675
:102EC00004F580531E67407B05F0B8F904230B4FCF
:102ED00002220DF106013846ADF806301FF016F952
:102EE00038461FF024F9A87B05F0A8F9002004F566
:102EF0000054266703B0F0BD00C0035060300020CE
:102F000070B50646124820F046F9B1680022114813
:102F100000F07EF8002304220321022001F0D2FDFC
:102F2000002335460C4C04221946184601F0CAFD10
:102F30000FCD0FC401222B6830462360074B1A7057
:102F4000FFF7A4FF3046FFF7B7FF002070BD00BFBA
:102F50003CE20300603000202C0E0020C12D002038
:102F6000F7B5144608221D46184B07461A67407BE2
:102F70000E4605F063F9012215480DF10201ADF886
:102F8000022025441FF0C2F82246114C95420192BE
:102F900008D8B87B05F052F9082200200D4B1A67BB
:102FA00003B0F0BD012201A920461FF0AFF8314661
:102FB000102220461FF0AAF80122204601A91FF086
:102FC000A5F8019A10360132E0E700BF00D00350A7
:102FD0006030002000E00350034B04481B78002BB6
:102FE00008BF0020704700BFC12D00202C0E00201C
:102FF00030B5064D87B001AC0FCD0FC42B6801A8CA
:103000002360FFF77DFF07B030BD00BF9CDC0300ED
:103010002DE9F04F04462D4E89B001AD894690460A
:103020000FCE0FC596E80700D4F800B0284B85E80E
:1030300007009B4545D003F580439B4543D0254D74
:10304000AB450CBF02254FF0FF35DFF890A02248BA
:103050000AEB4517D7F8AC6520F09DF8606820F0C2
:103060009AF8617B207B0023042201F02BFD0422CF
:10307000617A207A002301F025FD0123584601A939
:103080008DF81230CDF80C90ADF814801FF002FAD4
:103090000020627A237A2E3543EA02430AEB451A6E
:1030A000CAF80430627B237B06F0040643EA02433D
:1030B00046F01806C7F8C035C7F8AC6509B0BDE8DA
:1030C000F08F0025C1E70125BFE700BFB0DC03009A
:1030D00000800550000006503CE2030000C0035091
:1030E00000B589B020F0C7FAFFF7C0FAFFF76EFC11
:1030F000032000F007FB60B1344C3549206820F014
:1031000019F91FF0B0F81FF0AFF83249206820F02D
:1031100011F9314D20F0BCFA1EF014FE01A8FFF7A2
:1031200059FA019B2D4C2B60029B0320236000F079
:10313000E9FA60B1254E2649306820F0FBF81FF00F
:1031400092F81FF091F82649306820F0F3F8032038
:1031500000F0D8FA68B11D4E1D49306820F0EAF839
:103160001FF081F81FF080F82A681E49306820F0AF
:10317000E1F8032000F0C6FA68B1144E1449306833
:1031800020F0D8F81FF06FF81FF06EF8226816498B
:10319000306820F0CFF84FF47A7004F03DFE2B68D1
:1031A000124A142103A81DF031FC03A90220FFF7E5
:1031B00041FC23680E4A142103A81DF027FC0320BC
:1031C00003A9FFF737FC04F099F9A3E7A00E00204C
:1031D000CCDC0300D1DC0300640E0020600E002074
:1031E000D7DC0300E3DC0300EEDC0300F9DC0300C2
:1031F00006DD030030B503687C4A23F47F4323F0E7
:103200000703934289B040F0EE800822002112208B
:10321000774B0FF05DF9044610B3764D7649286878
:1032200020F088F87549286820F084F81FF01BF812
:103230001FF01AF8724B734A009373495C23286895
:1032400020F078F871492346714A286820F072F816
:10325000204600F09DFA6F49286820F06BF8FEE7E1
:103260000146032214206C4B0FF032F9044610B3D0
:10327000604D6149286820F05DF86049286820F0B9
:1032800059F81EF0F0FF1EF0EFFF5D4B5D4A009312
:103290005D496A23286820F04DF85C4923465C4A62
:1032A000286820F047F8204600F072FA594928684B
:1032B00020F040F8FEE7014605221620574B0FF09C
:1032C00007F9054610B34B4C4B49206820F032F803
:1032D0004A49206820F02EF81EF0C5FF1EF0C4FFFA
:1032E000474B484A009348497823206820F022F849
:1032F00046492B46464A206820F01CF8284600F034
:1033000047FA4449206820F015F8FEE70DF10F0157
:1033100004A80FF00BF9044610B3364D364928685F
:1033200020F008F83549286820F004F81EF09BFFCB
:103330001EF09AFF324B334A0093334983232868A7
:103340001FF0F8FF31492346314A28681FF0F2FF89
:10335000204600F01DFA2F4928681FF0EBFFFEE71A
:10336000BDF8143001465BBAADF818309DF8133043
:1033700008228DF81A30FF238DF81B30FE238DF8BC
:103380001C309DF8123018208DF81D30BDF810301B
:103390005BBAADF81E3006AB0FF09AF8054610B3D5
:1033A000144C154920681FF0C5FF144920681FF010
:1033B000C1FF1EF058FF1EF057FF114B114A00933A
:1033C0001149932320681FF0B5FF10492B46104A7E
:1033D00020681FF0AFFF284600F0DAF90D49206899
:1033E0001FF0A8FFFEE709B030BD00BFA00001003C
:1033F00010DD0300A00E0020E1DC0300E8D4030090
:103400004BDD030019DD0300F6D4030005D50300EE
:1034100002D503001AD5030041DD030045DD03009A
:1034200007B501A801F010FC9DF80530012B27D14C
:10343000214A936DDB0313D4536B23F4FF0323F46E
:10344000FE4343F4BC1343F4A0635363136B23F4B0
:10345000704343F440431363136B43F4E06313631B
:103460009DF8043063B94FF000531B68134B1B6881
:10347000134B1B68134B1B68134B1B68134B1B68C8
:10348000134AD2F8803043F00303C2F8803003F0CF
:10349000A3F900F0CFFA1FF000FF1FF070FE03F059
:1034A0001DFA00F0BDFA00F001FC00F0F3FC03B0DF
:1034B0005DF804EB03F046BF00C000500040002060
:1034C0000080002000C000200000012000400120FA
:1034D00000800050184B37B583422AD1174B1B7818
:1034E0003BB3C8B20EF0E2FF054610B3144C1549C9
:1034F00020681FF01FFF144920681FF01BFF1EF0FB
:10350000B2FE1EF0B1FE114B114A00931149852302
:1035100020681FF00FFF10492B46104A20681FF04B
:1035200009FF284600F034F90D4920681FF002FF1A
:10353000FEE703B030BD00BF680E0020C22D0020A2
:10354000A00E0020E1DC0300E8D403000BE0030040
:10355000A4DF0300F6D4030005D5030002D5030061
:103560001AD5030030B500250368584A23F47F4379
:1035700023F0070385B0934204460295ADF80C5042
:103580007ED002F5802293420ED0A2F18272934245
:1035900040F09A804E4B1B78002B00F0958005B0D0
:1035A000BDE8304020F07FB8B0F805301B2B40F06C
:1035B0008B80FF2304A91A4611E903001EF04CFE7C
:1035C000012814BF41F2FC15414B05F0FC0208BF75
:1035D00018701B2120790EF091FF054610B33D4C69
:1035E0003D4920681FF0A6FE3C4920681FF0A2FE5E
:1035F0001EF039FE1EF038FE394B3A4A00933A4924
:10360000592320681FF096FE38492B46384A206817
:103610001FF090FE284600F0BBF8364920681FF0E6
:1036200089FEFEE7344900902379344A096834481A
:1036300000F00AF90546002846D0264C26492068A5
:103640001FF078FE254920681FF074FE1EF00BFE67
:103650001EF00AFE224B234A00932349622320686E
:103660001FF068FE21492B46214A20681FF062FEA8
:10367000284600F08DF81F4920681FF05BFEFEE72A
:10368000B0F80530B7EE047A07EE903AF8EE677AB4
:10369000B0F8073067EE877A013307EE103AB8EEDC
:1036A000C77A67EE877AB1EE047A67EE877AFAFE18
:1036B000677AFCEEE77A17EE903AB3F57A7F38BF77
:1036C0004FF47A730C4A136005B030BDA0000602B7
:1036D000C22D0020A00E0020E1DC0300E8D403008E
:1036E0001AE00300A4DF0300F6D4030005D50300AD
:1036F00002D503001AD5030070300020D534010034
:10370000680E00200B4B02461B7883B10A4B1B78D6
:10371000834234BF00200120084B1B7833B1084B93
:103720001B78134113F0010F08BF002070470120E0
:10373000F2E700BF8132002080320020C32D00203C
:103740007F320020012208B5074B1A700022074B78
:103750001A700422064B1A701F22064B1A7003F0CF
:10376000A7F8054B186008BD81320020C32D00204A
:10377000803200207F320020A00E0020024B03493F
:1037800018681FF0D7BD00BFA00E00203AE003006C
:1037900070B50C4C0C49064620681FF0CBFD03F0B9
:1037A00087F80546206803F077F83046FFF7E6FF14
:1037B000284603F071F820680449BDE870401FF006
:1037C000B9BD00BFA00E00203CE003003EE00300B6
:1037D00038B505461EF0B7FD00230B4A14685CB1EE
:1037E000AC4206D1A96A6BB199621EF0B2FD01200C
:1037F00007E02346A46AF2E7002DF3D01EF0A9FDEE
:10380000204638BD1160F0E7A40E002010B5044634
:10381000B0B104F03BFA2046FFF7DAFF10B194F89C
:103820002C300BB9002010BD064C2368002BF9D0BA
:103830001EF089FD2368013B23601EF08AFDF1E73D
:103840002220F0E7A80E00202DE9F04385B00546C0
:10385000914698460E469DF8307009B9002F5CD10C
:103860002846FFF7D3FF0446002836D185F82C0000
:10387000686304F047FB864233D904F0B5FA214669
:10388000844640F2E7304FF47A720023E6FB0C01E5
:103890001CF0C2FD4FF0FF3200231CF0BDFD2B4693
:1038A000E88611462846CDE900441D4A1FF083FEF4
:1038B000044690B9C5E9089885F82D702E631EF06E
:1038C00042FD184A136833B31A469B6A002BFBD19A
:1038D00095620023AB621EF03CFD204605B0BDE8BA
:1038E000F08347B12B4631462846CDE900440C4AC7
:1038F00004F0CCFADCE7304603A904F0A9FA044648
:103900000028EAD12B462846CDE90077044A0399DE
:103910001FF02DFECCE71560DBE72124DDE700BFBB
:1039200029390100A40E002091F82C3013B50C4663
:1039300083B98B8ECA8E93420ED243B9CDE9003340
:1039400020460B46124A4FF0FF311FF0F4FDA38EC4
:103950000133A38602B010BD52B191F82D3093B15E
:1039600001230093D1E908232046096BFFF76CFF80
:10397000012384F82C30074B1A6801321EBF1A68E5
:1039800001321A60E6E7084604F080F9F0E700BF6C
:1039900029390100A80E00202DE9F041154E3368A9
:1039A00033B34FF00008144F1EF0CDFC05463C68C1
:1039B00024B92846BDE8F0411EF0CBBC94F82C3069
:1039C000A3B1336884F82C8013B13368013B3360B2
:1039D00094F82D3013B92046FFF7FAFE28461EF062
:1039E000B8FCD4E9083120469847DDE7A46ADFE750
:1039F000BDE8F081A80E0020A40E0020034B1B6838
:103A0000002B14BF04200120704700BFA80E002027
:103A1000024B1868B0FA80F040097047A80E0020E9
:103A200008B503481FF0B7FBBDE808401EF0ACBB6B
:103A30003CE2030001481FF0AEBB00BF3CE20300C4
:103A400007B508201EF08FFC02238DF80030054BCF
:103A5000684601931EF01FFC082003B05DF804EBDC
:103A60001EF08CBC006A18100348044A0449121A5C
:103A700092101EF04DBC00BF34210100D422010081
:103A8000C02E002008B500F02FF8FFF7EDFF124B15
:103A900012498B4212D30020114B12498B4218D38A
:103AA000FEF702FD186850F82240586840F822409E
:103AB000013298688242F5D30C33EAE70022F8E736
:103AC0001C6844F8220001325C68A242F8D3083333
:103AD000E4E70022F8E700BF201004002C100400E7
:103AE0002C1004002C100400124B134A70B59A607D
:103AF000D3F88820114D42F47002C3F888206FF08B
:103B0000010205F50054226641F2FF72626602224C
:103B1000C3F8D020BFF34F8FBFF36F8F4FF4403601
:103B2000032002F097FE0320E66002F085FE2E617E
:103B300070BD00BF00ED00E00020010000800044E7
:103B4000014B1868704700BF78300020014B1860A7
:103B5000704700BF78300020084B1B6F03F007034D
:103B6000022B04D0032B05D0012B05D0FEE7044B1C
:103B700018687047034BFBE703487047008000500C
:103B80007830002080300020002D310108B5FFF78B
:103B9000E3FF054B1B6FC3F301330133B0FBF3F0BD
:103BA000024B186008BD00BF008000507430002038
:103BB0000048704700B4C404014B1868704700BF48
:103BC00080300020054B1860054B1B6F03F0070386
:103BD000032B01D1FFF7DABF704700BF8030002010
:103BE0000080005000487047002D3101174B986845
:103BF000C0F304400C280AD8DFE800F00B090909DB
:103C00000909072119091B1D1F00114870470020D1
:103C100070479B6803F04073B3F1807F11D0B3F11C
:103C2000007F10D00B4A002B08BF104670470A488F
:103C300070470A4870470A4870470A4870470A4860
:103C400070470A4870470A48704700BF0040015A51
:103C5000405DC60000093D00C0EA210180BA8C0128
:103C60000048E801005A62020024F40080841E002B
:103C700040420F00014B1868704700BF7C300020A5
:103C800000239B6AB3F5903F03D21968064A91421C
:103C900003D00023037083607047012202709A688A
:103CA0009B694260F7E700BF07B0CD5E00239B6AC7
:103CB00010B5B3F5903F11D219680A4A91420DD15F
:103CC000094C227812F0FD0F01D0002010BDDB69F5
:103CD00098470028FAD101232370F6E74FF481704A
:103CE000F4E700BF07B0CD5EC42D00204FF00053B5
:103CF000014A1A6002F08EBD02020FF0034B5868B1
:103D0000C0F30800003818BF0120704700ED00E044
:103D100013B50024294801941FF03DFA0123042221
:103D20000321204600F0CEFE20461EF09BFB012220
:103D3000234B0520C3F8442401A91FF022FA0028D0
:103D400039D1204BD3F8F02042F00102C3F8F02023
:103D5000D3F8FC2042F08072C3F8FC201A4AA3F585
:103D60005D431A60019B194A03F5D52303F2FC4316
:103D7000B3FBF2F3164A013B13610223C2F8F030A1
:103D80004FF48073C2F804334FF06043114AC3F814
:103D9000B02F114AC3F8802ED3F8002E42F480725F
:103DA000C3F8002EFF2283F82020D3F8002E22F43F
:103DB0008072C3F8002E02B010BD00BF3CE20300C9
:103DC00000D0035000ED00E0FF030040F8590D0063
:103DD000000004E055CEACC5090001004FF060437F
:103DE000D3F8802E30B5D20715D501240B4D844071
:103DF000D5F8FC2042F08072C5F8FC20D3F8002EE4
:103E00002243C3F8002E53F82020002AF0D003F8F4
:103E10002010002030BD1120FCE700BF00ED00E0C5
:103E2000184B2DE9F0411F6D5B6D1F4000D5FEE77B
:103E300001260025144CDFF85880374218D023683B
:103E4000C8F85060A3B1A168284601316268A1603A
:103E50009847637B012B0BD150B90C4B03EB4513F7
:103E60001A7B60F341021A731A7F60F341021A77DA
:103E70000135082D4FEA460604F11004DDD1BDE8F6
:103E8000F08100BF00000450AC0F0020AC0E0020F9
:103E900000200450024B1968024B186815F070B9E5
:103EA00084300020A430002070B5940022460546DE
:103EB0000E4629F015FB431C0AD058B9224631465C
:103EC000284628F01AFB0028034808BF002070BDD0
:103ED0000248FCE70248FAE710E000F021E000F0B9
:103EE00024E000F010B5044629F0F6FA431C10D087
:103EF00088B900F0D1FE234620F003002044984208
:103F000001D1002010BD53F8042B0132F7D0034833
:103F1000F8E70348F6E70348F4E700BF0EE000F0D7
:103F200021E000F024E000F008B51EF005FA014B96
:103F3000186008BD1C170020014B18681EF000BA5D
:103F40001C17002041F67133124A30B5D469124D66
:103F5000D3639368A84204F4803423F4401306D852
:103F600093600E4AD2F8183223F002030AE043F4B9
:103F7000801393600A4B9842F3D9084AD2F818325A
:103F800043F00203C2F8183214B10022014BDA6385
:103F900030BD00BF00000350005A620200C007504D
:103FA00080F0FA022E4B98424AD022D82D4B9842EC
:103FB00040D014D82C4B984239D00AD82B4B984279
:103FC00032D02B4B98422FD02A4B98422CD0002035
:103FD0007047294B9842FAD1284B186F7047284BED
:103FE00098422AD0274B9842F1D1244BD3F8800035
:103FF0007047254B98422BD009D8244B984223D0A8
:10400000234B9842E3D11D4BD3F88C007047214BD2
:10401000984221D003F5740303F510539842D6D18A
:10402000164BD3F898007047144B986D7047134B9C
:10403000586E7047114B586F7047104B986F704710
:104040000E4BD3F8840070470C4BD3F888007047B0
:104050000A4BD3F890007047084BD3F89400704790
:104060000048E8010024F400C0CF6A0080841E00EC
:1040700000093D0040420F00405DC6000080E00F97
:10408000C0EA210180BA8C01007E560380D543022C
:10409000006CDC020090D00338B5134B0546D3F812
:1040A00020010C4600F0070004281AD8DFE800F0D1
:1040B00003090D111500012305B1286004B1236027
:1040C00038BDFFF73DFD0423F6E7FFF775FD032339
:1040D000F2E7FFF78BFD0523EEE7FFF783FD0223F1
:1040E000EAE700231846E7E70080005037B50C46A2
:1040F0000021114B0191D3F88031054603F00303F1
:10410000022B0ED0032B11D0012B03D101A8FFF7F6
:10411000C3FF0D210DB1019B2B6004B1216003B0E1
:1041200030BDFFF763FD05210190F3E7FFF75AFD6E
:1041300002210190EEE700BF0080005038B5104B1F
:104140000546D3F840310C4603F00303022B0BD095
:10415000032B0DD0012B0FD11EF0E8F8082305B179
:10416000286004B1236038BDFFF784FD0723F6E71C
:104170001EF0DFF80923F2E701230020EFE700BF7C
:104180000080005038B5104B0546D3F860310C461E
:1041900003F00303022B0BD0032B0DD0012B0FD107
:1041A0001EF0C4F8082305B1286004B1236038BDAF
:1041B000FFF760FD0723F6E71EF0BBF80923F2E7DF
:1041C00001230020EFE700BF0080005038B5144BFA
:1041D0000546D3F800020C4600F0070004281BD85F
:1041E000DFE800F003090D111500012305B1286077
:1041F00004B1236038BD1EF099F80823F6E7FFF7F5
:1042000039FD0723F2E71EF094F80923EEE7FFF7E4
:10421000BDFC0C23800AE9E700231846E6E700BF4F
:104220000080005038B5144B0546D3F808020C4600
:1042300000F0070004281BD8DFE800F003090D1187
:104240001500012305B1286004B1236038BD1EF0BC
:104250006DF80823F6E7FFF70DFD0723F2E71EF0E0
:1042600068F80923EEE7FFF791FC0C23800AE9E7E1
:1042700000231846E6E700BF0080005038B5104B19
:104280000546D3F840320C4603F00303022B0BD053
:10429000032B0DD0012B0FD11EF048F8082305B1D8
:1042A000286004B1236038BDFFF7E4FC0723F6E77C
:1042B0001EF03FF80923F2E700231846EFE700BF9E
:1042C0000080005038B5104B0546D3F800310C463D
:1042D00003F00303022B0BD0032B0DD0012B0FD1C6
:1042E000FFF76AFC032305B1286004B1236038BDE1
:1042F000FFF7C0FC0723F6E71EF016F80623F2E7E7
:1043000001230020EFE700BF0080005038B50C46C5
:1043100005461EF011F8054B9A6A54402C40544053
:104320009C62BDE838401EF00BB800BF00C00050D2
:10433000032814D005D8012805D0022809D0002070
:1043400005E00F28FBD1084B186FC0F30130013096
:104350007047054BD3F89000C0F30460F7E7024BB9
:10436000186FC0F38020F2E7008000501FB50023D3
:104370000193252817D8DFE800F0131A1D272C36E3
:104380003B51565B60656A78161A401616561A2716
:104390002C27361A5127783B3B3B3B2727275B606E
:1043A000FFF7DAFB0190019805B05DF804FBFFF719
:1043B000EDFBF7E7FFF7D0FB02460220FFF7B8FF5F
:1043C000B2FBF0F20192EEE7FFF7E0FB02460320BA
:1043D000F4E7FFF7DBFB02460320FFF7A9FFB2FB80
:1043E000F0F25208EEE7002101A8FFF77FFEDAE7BE
:1043F000002101A8FFF750FED5E702934FF0E0231C
:104400001B695B0705D5FFF7C1FB0290029B019377
:10441000C9E703A902A8FFF791FEF7E7002101A869
:10442000FFF78CFEBFE7002101A8FFF7ABFEBAE75C
:10443000002101A8FFF7CAFEB5E7002101A8FFF798
:10444000F1FEB0E7002101A8FFF73CFFABE7094B05
:10445000D3F8803003F00303022BA8D0032B01D044
:1044600000209FE7FFF7C2FB9CE7002101A8FFF7B0
:1044700005FF98E70080005008B50120FFF776FFA0
:10448000BDE808400349884294BF0121022103206E
:1044900000F002B880F0FA02032810B50C4627D0CD
:1044A00004D8012804D0022817D010BD0F28FCD151
:1044B0001DF0A5FF1DF0ABFF124A013C136F23F462
:1044C000405343EA04331367FFF760FB0021FFF713
:1044D00039FDBDE81040FFF7CFBF0A4A4C1ED2F8A5
:1044E000903023F0F85343EA0463C2F89030DCE7DD
:1044F000044A4C1E136F23F4806343EA842313673A
:10450000D3E700BF008000501FB50023019325288A
:1045100021D8DFE800F013202020202A2F454A4F21
:1045200054595E7120203420204A202020202A2047
:104530004520712F2F2F2F2020204F54314B1B6FE0
:1045400003F00703013B032B05D8DFE803F00C025F
:10455000080A04230193019805B05DF804FB0323C6
:10456000F8E70623F6E70223F4E7002001A9FFF7A6
:10457000BDFDF0E7002001A9FFF78EFDEBE70293F8
:104580004FF0E0231B695B0705D5FFF7FFFA0B230C
:104590000393039BDEE703A902A8FFF7CFFDF8E72B
:1045A000002001A9FFF7CAFDD5E7002001A9FFF708
:1045B000E9FDD0E7002001A9FFF708FECBE70020C6
:1045C00001A9FFF72FFEC6E7002001A9FFF77AFE39
:1045D000C1E70C4BD3F8803003F00303022B03D068
:1045E000032B05D00023B5E7FFF7D0FA0B23B1E783
:1045F000FFF7FCFA0523ADE7002001A9FFF73EFE17
:10460000A9E700BF00800050024A536A23F001036B
:104610005362704700C0075008B5FFF775FF0728C1
:104620000ABF024B4FF6FF70188808BD6C3200209D
:1046300008B5FFF769FF03280ABF024B4FF6FF706A
:10464000188808BD6A32002038B50546FFF7AAFC75
:10465000204B04465A68012A04D11F494A609A69CE
:104660009207FCD10020FFF74FFF042803D11DF073
:10467000C6FE1DF0CCFE194A24F0407395421FD0AF
:10468000174A95421FD0174AD16811F0060FFBD187
:104690009068936091684B4013F4F81F16D1284638
:1046A000FFF754FA0020FFF72FFF042810D1FFF77F
:1046B0006DFA0021FFF746FCBDE83840FFF7DCBE8D
:1046C00043F00073DFE743F08073DCE79060E9E7D5
:1046D00038BD00BF00C0015000E0015040420F0053
:1046E00080841E0000000150F8B504460020FFF74A
:1046F0000BFF032800F0818045F60E0302213F4A9C
:10470000C2F880303E4B9962012103F580539962D3
:10471000936DD903FCD4D4E900131B0543EA01636C
:10472000E17B94F820500B43217BE77E43EA014371
:10473000617B6D0143EA0133A17B43EA811313617D
:104740009169D4E904031B0643EA806301F0004148
:104750000B43A17E94F823000B43217E43EA0143DF
:10476000617E43EA01239361136AE66923F00D0336
:1047700094F8221043EA870366BB1362966A94F8A2
:10478000213045EA031326F033052B4343F00103A0
:1047900093621C4D194A936D35EA0303FBD1022540
:1047A000174B9D62936D5B00FCD41369A56823F4DD
:1047B000700343EA055313614FF00042104B9A61B6
:1047C00019B9022203F580539A6278B901220E4B7F
:1047D0009A620BE0334343F008031362936A23F0B9
:1047E000330303432B4343EA4103936294F8243099
:1047F0001BB1024B054AC3F88020F8BD00C0005031
:1048000000D000500300014000E00050F1A7FFFF7E
:1048100070B5184CFF28A66A2AD8A36D13F4803F00
:1048200018BF0122144B18BF9A6202229A62A56D2A
:1048300015F08045FBD1114AA36992F9002023F4B9
:104840007F03024423F47F4382F3080243EA0023F8
:1048500043EA0243A36131460220FFF757FDA36DEF
:10486000DB0303D531460120FFF750FD284670BD1C
:104870002125FBE700C0005000D00050C52D0020CE
:10488000014B93F900007047C52D00200123124809
:10489000124A816A9362836D03F00303032BFAD1FA
:1048A000022393620C4A936D5800FCD40C48936D1C
:1048B00030EA0303FBD10122084B1A65A3F58053AC
:1048C0009A6D9207FCD49A6D9007FCD59A6D920769
:1048D000FCD50320FFF71ABD00C0005000D00050E7
:1048E00003000100F0B5D0E901434FF4D15602278F
:1048F000164A417805785662154E4F2977604FF079
:10490000010728BF4F2106F5805677601669F60328
:10491000FCD441EA052151611B01417B43EA042398
:104920000B43017B43EA41039360C37B817B1B0103
:1049300043EA4113417C0B43017C43EA410353604A
:10494000837C13B16FF4D1535362F0BD0000025069
:1049500000100250014B1880704700BF6C320020DD
:10496000014B1880704700BF6A320020284B9842E4
:1049700042D01AD8A3F5B703A3F55863984237D0AD
:104980000CD8244B984225D0234B98422AD0234B55
:10499000984217D00023224A93607047214B9842D7
:1049A000F8D1214BD3F8BC301FE0204B984227D0E0
:1049B0001F4B984228D01F4B9842EBD11A4BD3F88B
:1049C000C83012E0184BD3F8A03023F0407343F006
:1049D0000073E0E7144BD3F8A03023F0407343F0AA
:1049E0008073D8E7104BD3F8A03023F04073D2E7A0
:1049F0000D4BD3F8B830F8E70B4BD3F8C030F4E7E1
:104A0000094BD3F8CC30F0E7074BD3F8D030ECE7C4
:104A1000C0EA210180841E0000093D0040420F00D1
:104A20000040015A0024F4000080E00F0048E80133
:104A3000005A620280BA8C010C4A10B51369044610
:104A400043F00403136102F005FF1DF0F8FC084B6E
:104A5000084AC3F8202430BF1DF0F2FC02F01CFF0E
:104A60001CB9BDE81040FFF791B810BD00ED00E0A3
:104A700000E003500000FFFF0A4A10B51369044626
:104A800043F004031361084B084AC3F8202402F0E2
:104A9000E1FE30BF02F000FF1CB9BDE81040FFF797
:104AA00075B810BD00ED00E000E003500000FFFF0E
:104AB000034A0179D36E23F030030B43D36670476A
:104AC00000400050F8B504460D461F4616464AB150
:104AD00001238B403021184A01FB0022F7B141F23B
:104AE0001001535004EB4403072D4FF00F014FEA20
:104AF000031316D8A80006FA00F281400F481844A4
:104B00001DF0A1FC4EB9012330210B4AAB4001FB43
:104B1000042277B141F210015350F8BD42F2100166
:104B2000DFE7A5F10800800006FA00F281400448A2
:104B3000E5E742F21001EFE700C0035004C0035064
:104B40000CC0035041F67132034BDA63012203F5C6
:104B50000053DA60704700BF0000035041F6713225
:104B60000121044BDA6303F50052D1600022DA63BD
:104B7000704700BF00000350CB784A7810B55B0146
:104B80000C7843EA82030A79234343EA02130C2296
:104B9000424302F1B0421363012C02BF8A78024BF8
:104BA00043F8202010BD00BFD080035008B54FF05F
:104BB000B0435A686AB958B15B680BB11DF053FC39
:104BC00001210D4B59601DF04EFC4FF0B043D960F0
:104BD00008BD5B680BB11DF046FC0028F0D11DF04C
:104BE00042FC4FF0B0430222DA601DF03CFC01228F
:104BF000024B5A60ECE700BF00100058002000583C
:104C00004FF0B0414B6810B50BB11DF02CFC0122E8
:104C10000B4BC4785A608378934043EA840344780A
:104C20002343047943EA0413447943EAC4038B60C1
:104C3000044B5A600378C3F10203CB6010BD00BF80
:104C40000020005800100058054B5B69C3F3851223
:104C5000827003F03F021B0B42700370704700BF6D
:104C600000C0075040F6B732064B5B689BB29342D8
:104C70009FBF4FF47A72B3FBF2F3034AD05C88BF54
:104C8000002070470080E00FB5E00300014B986CF6
:104C9000D96C70470080E00F0120034B9B680A33FA
:104CA00003F01F03984070470080E00F0D4B9842BF
:104CB00008D1A3F50033C3F88411C36D43F080031A
:104CC000C3657047084B984204D1A3F51033C3F86D
:104CD0009411F2E7054B984204BFA3F52033C3F8C3
:104CE000A411EAE70080055000C0055000000650FE
:104CF000012200F580535A6040F6AA6341F2050292
:104D0000436100230D498360C365C26000F5005212
:104D10000361C361C364916409498365884203D117
:104D200003650023436506E006498842F8D001F593
:104D300080418842F4D0012353607047FFFF010097
:104D40000080055000C0055038B50446054D26F0DA
:104D50001BFF0FCC0FC594E80F0085E80F00002063
:104D600038BD00BF2017002047F6FF739A42F0B508
:104D700072D0022972D83A4B5B5C022B6ED8394D47
:104D8000DF0005EBC304A17815F83330012938BFE3
:104D90000121012B13D10025E078401AA84202D846
:104DA0000844C0B2F0BD431B6668A0EB530336F95C
:104DB00013609642D4BF1D4603F1FF30EEE76068F2
:104DC0000028EFD0B0F90040944204DBB0F9024073
:104DD0009442B8BF144683883D44FF2B19BFC822B4
:104DE0004FF0280CB0F90620B0F908C0A2EB04037C
:104DF0000CBF0126002693FBFCF333446E781BB2F4
:104E00009E4201DD002B01DA731E1BB24FF47A7C47
:104E100001339BB2071D5D1E2DB24FEAC50E00EB9C
:104E2000C505EA88AD689E4214FB025222EAE2728E
:104E300002F15C02B2FBFCF204DD37F833500133BF
:104E40009542E8D200EB0E039888904228BF1046A6
:104E5000884238BF0846A4E7FF20A3E70020A1E767
:104E6000B8E00300201700200229F0B560D8314BCC
:104E7000595C02295CD8304B13F83100012816D157
:104E800003EBC1039C78D878012C214638BF01215F
:104E9000904294BFC1EB0001C1EB0201001BCAB2FA
:104EA0008242C8BF00225B6833F91200F0BD002ABD
:104EB0003CD003EBC1035968002939D0987890425F
:104EC00002D3B1F90200F1E7DC78B1F900009442B5
:104ED000ECD95C788B88013CA3F1FF06734201F1A9
:104EE0000405E4B2734101F10C07DEB2B44216D8F6
:104EF00005EBC3034FF47A756A43B3F902405B686C
:104F0000D21A04EBD47302EB630292FBF4F29042E8
:104F1000CCDBB1F902009042C8DC10B2C6E737F82A
:104F200033C05E1C9445E3D33346DEE70348BDE758
:104F30000348BBE7B8E00300201700200CFEFFFF8A
:104F40000080FFFF08B50448FFF7FEFEBDE80840FB
:104F5000012026F01DBE00BFBCE0030000487047E2
:104F60006E3200207FB50222084B0949CDE90123AA
:104F70004FF00073CDE90313052301A94FF0FF3073
:104F8000059326F035FE07B05DF804FB006A1800B3
:104F9000000204002DE9F0418CB08846DDE912766C
:104FA0001D460446002847D0002945D0002F43D095
:104FB000002E41D013F00F033ED120482049A360BA
:104FC000002A08BF0146E361C4E90013404609A96D
:104FD0001DF0BAFB68BB204609991DF0F9FC294673
:104FE00020461DF0F5FC694640461DF05BFC00BB09
:104FF000694620461DF0D8FC404603A91DF05DFC23
:10500000B8B9204603A91DF0CFFC0697012720461A
:1050100045F0005506A9079708951DF0C5FC2046E8
:1050200009A909960A970B951DF0C8FC20461DF0AA
:10503000B9FA0CB0BDE8F0812120FAE700010004C4
:10504000000101042DE9F0418CB0884616461D464A
:105050000446129F00284BD0002949D0002A47D08F
:10506000002F45D00B68103B102B41D8214A22FA63
:1050700003F3D9073CD500231F4A8360C0E900230E
:10508000C36109A940461DF05FFB70BB204609992A
:105090001DF09EFC294620461DF09AFC69464046BC
:1050A0001DF000FC08BB694620461DF07DFC404613
:1050B00003A91DF002FCC0B9204603A91DF074FC31
:1050C00006960126204606A945F000550796089544
:1050D0001DF06AFC094B204609A909970A960B9313
:1050E0001DF06CFC20461DF05DFA0CB0BDE8F081AF
:1050F0002120FAE701010100000004041000002053
:10510000F0B50C4617461E46054695B0002874D0EB
:10511000002972D0002A70D0002B6ED0036B0F2BA9
:105120005BD80023364A3846C4E90023A360E36114
:1051300011A91DF009FB00285BD1204611991DF033
:1051400047FC296B20460F2984BF01F00F01103165
:105150001DF03EFC384602A91DF0A4FB002848D1F2
:10516000204602A91DF020FC384605A91DF0A5FB2C
:1051700000283ED1204605A91DF016FC0122214B36
:10518000089509920A932B6B05F1100003F00F01AB
:1051900041F000510B900F2B0C920D910E900F923D
:1051A00043F00052109226D90A9B08A923F000531D
:1051B00020460A931DF0F8FB0BA920461DF0F4FBD6
:1051C0000123119612930F4B204611A913931DF042
:1051D000F5FB20461DF0E6F90BE000F120030190FD
:1051E00000930122102339462046FFF7D3FE002802
:1051F00097D015B0F0BD0EA9DFE72120F9E700BF79
:1052000000000404100000202DE9F04F9BB00C4674
:1052100090461F460546DDF89090002800F0B280C9
:10522000002900F0AF80002A00F0AC80002B00F0D5
:10523000A980026B02EB09031B09B3EB121F02F0FA
:105240000F0600F0978000234F4A8B60C1E90023CE
:10525000CB61404617A91DF077FA0346002840F0BD
:10526000858006EB090B204617992BF00F0A1DF0DD
:10527000AFFB514620461DF0ABFB404602A91DF096
:1052800011FB0346002871D1204602A91DF08CFBBA
:10529000404605A91DF011FB0346002866D14FF0DA
:1052A0000108019005A920461DF07EFB374A2046E3
:1052B00008A90895CDF824800A921DF075FB46F0E8
:1052C0000051AAEB060605F1100346F000560B93B9
:1052D000CDF830800D910E97CDF83C8010960D9949
:1052E000204621F000510D910BA900931DF05CFBAD
:1052F00020460EA91DF058FB019B244A1193AAF1E8
:10530000100343F00053CDF84880139305F12003B8
:105310001493CDF854801692139B204643F080439B
:105320001393139B11A923F0005313931DF046FB15
:10533000204614A91DF042FB144A17A920461795D0
:10534000CDF8608019921DF039FB20461DF02AF936
:10535000AAEB0B0149440190ABEB0A0200983944D7
:1053600027F013F9019B2A6B4A442A6318461BB0A5
:10537000BDE8F08F10304A463946304427F005F931
:105380000023F0E72123F1E70302000410000020CE
:105390002DE9FF474FF000080E4617460446CDF8AA
:1053A0000080002859D022B90025284604B0BDE865
:1053B000F087002951D032F0030902F0030A1FD010
:1053C0004FF0E063C0E9003801230191C0F8088084
:1053D0000293C0F81C8049F0005301A903931DF00B
:1053E000EDFA494620461DF0F3FA20461DF0DAF8A2
:1053F000054628B14A464146304627F0A8F8D4E78A
:10540000BAF1000FD0D04FF000084FF0E063C4E9CC
:1054100000380123CDF804D00293114B204601A996
:10542000C4F80880C4F81C8003931DF0C7FA042157
:1054300020461DF0CDFA20461DF0B4F8054608B10F
:105440003A46D8E7009A4E44EB00013522FA03F3BE
:10545000AA4506F8013BF7D1A6E72125A5E700BF3D
:1054600004000020F0B50F4616461D46044693B0D2
:1054700010B9212013B0F0BD0029FAD0002AF8D0CD
:10548000002BF6D0002331461A4638461DF001F9AC
:105490000028EFD1304602A91DF0A6F80028E9D176
:1054A00038683449029A88426B695ED19342E0D3EE
:1054B0002B68002BDDD14FF060623846C4E9002331
:1054C000A360E36101A91DF03FF90028D2D1019941
:1054D000204621F4F06101911DF07AFA69462846D0
:1054E0001DF032F90028C5D1204600991DF070FA50
:1054F000384609A91DF0D6F90028BBD1204609A9D4
:105500001DF052FA38460CA91DF0D7F90028B1D188
:1055100020460CA91DF048FAEB684BB1284606A9B5
:105520001DF0C0F90028A5D1204606A91DF03CFABF
:10553000304603A91DF0C1F900289BD1204603A9DC
:105540001DF032FA28460FA91DF0B7F9002891D1B5
:1055500020460FA91DF032FA032520461DF022F83F
:10556000012887D1013DF8D184E7B3EB420F9FD2E8
:105570007FE700BF200000B070B50E461546044618
:105580008AB000285CD000295AD0002A58D00123C4
:1055900029461A4630461DF07CF800284ED1B368E3
:1055A00013F4C04F4CD0AB6803F4C043B3F5005FB5
:1055B00046D1254BA060C4E90030E06107A9304620
:1055C0001DF0C2F8002839D1204607991DF000FAD5
:1055D000012302934FF00053204601A903931DF0CD
:1055E000E3F9304604A91DF068F938BB204604A948
:1055F0001DF0DAF9EB681BBBAB6803F4C043B3F5ED
:10560000005F1DD1694628461DF011F8B0B9009B16
:105610006A699A4216D32A6943F00053079201221D
:10562000204607A90892032509931DF0C7F92046D3
:105630001CF0B8FF012801D1013DF8D10AB070BDBE
:105640002120FBE71D20F9E7000001021FB50446F9
:1056500098B191B100230A4A8360C0E90023C36175
:10566000012301910293074B01A903931DF0A6F9B1
:1056700020461CF097FF04B010BD2120FBE700BFBF
:10568000000008430400002006289ABF014B185C64
:1056900000207047A8E1030030B5154B87B0029396
:1056A000144B0390049346F611030D46059300F046
:1056B00077F91428044616D168461DF03FFA4FF0DA
:1056C000A843032202A95A6319601D619A63DA6B29
:1056D0009207FCD1142C02D168461DF03DFA00F06F
:1056E0008FF9044601E00028E9D0204607B030BD1C
:1056F00040170020040000202DE9F04FB1B005460E
:105700008C469E46E8466F4EDDF8EC90409C06F1D4
:10571000100A474630687168083603C75645B846D0
:10572000F7D13E9B03EB0208C8F1000A0AF00F0A0A
:10573000B9F1000F00F09D80C9F1000707F00F07D5
:105740000121DDF8FCB044F00050C4F11006CDF8A2
:1057500010B005910690300200F4F85040F021009E
:105760000790B9F1000F40F08680CDF820D047F0C7
:105770000050002D00F08480099121210A9041EA17
:1057800007210B9142F00050CDF830C03D9B08A995
:105790004FEA0A2C0D910E904CF041000F9010939F
:1057A000002A75D13E9B119143F0005312933C9B0C
:1057B0001390149310AB1593434B444A169340F641
:1057C00011031793424B0021002D08BF1346189375
:1057D00014AB19933F4B10221A9311231B931CAB4C
:1057E000184626F0B4FE01221D92002246F08046A3
:1057F00003461E96239205B9EB46102CCDF880B0D7
:1058000024AE4BD10123224600213046219322941D
:1058100026F09DFE20AB002125938F4218BF334612
:1058200047F0804226923A9A2CA828922993B2FAFD
:1058300082F35B0949EA837310222B912A9326F0A5
:1058400086FEB9F1000F00D028AED04448F0804366
:105850002CA918A82D962E93FFF71EFF30B92DB94D
:105860000346A34225D1002818BF2C2031B0BDE843
:10587000F08F102764E7CDF820E049F0005078E77A
:10588000002C3FF479AF04A9099101210A9076E731
:105890003E9B0CAA11924120129388E7102200210E
:1058A00030462193229426F052FE002CB2D10123DF
:1058B000B1E703F1C0026A4412F8C02C013310436F
:1058C000CFE700BFAFE1030010000020C4E10300F8
:1058D000C8E1030004000020F0B5C0299FB0DDE955
:1058E000244557D0B1F5807F04D0802948D02920A5
:1058F0001FB0F0BD01265CB140F234470294102481
:1059000003960494212401970594069502AC0AE0BD
:1059100040F2144702941024039604942124059421
:1059200001240197069507940125102408940995F0
:105930000A9221220B950C940D92174A0AAD0E92F1
:10594000164A0F95109242F6110211921293139576
:105950001494159201AA1692D3B112AB1793042393
:1059600018931123199316AB1A901B9340F6110349
:10597000C9081C911AA806A91D93FFF78DFEB7E769
:10598000012614B94FF48267C4E74FF48667B5E780
:105990000EABE3E70F20ABE7C0E1030010000010FF
:1059A000144A38B5D2F8803243F00103C2F880328D
:1059B000114B5B68C3F3080343B14FF0A842D36BAC
:1059C00013F0430FFBD11424204638BD4FF0A843F9
:1059D000DC6B14F04304FBD1084D2B681BB9042188
:1059E000284602F069FE2B68013343F000432B6028
:1059F000EAE700BF0080005000ED00E04017002003
:105A0000014B00205B68704700ED00E0012300F0CF
:105A10001F02A0F506200949A0F5506040099340F7
:105A200051F820201A4341F82020054951F8202040
:105A300022EA030241F82020704700BF58170020D7
:105A4000441700200121A0F506230E4AA3F5506358
:105A50005B0900F01F00814052F82300014342F827
:105A600023100949D1E90030034488680344C86819
:105A7000096903445B1802BFC2E90033C2E902337B
:105A80001361704744170020581700202DE9F04F8C
:105A9000A9B003921D4604460822339ECDE90401B5
:105AA000414021FA02F34B40980702F1080218BF67
:105AB0009B00202A1C44F4D18123B4FBF3F303EBB5
:105AC000C313E41A734B04F506241B7804F55064E1
:105AD000002B3ED1FEF7DEF9074620B16FF09100B2
:105AE00029B0BDE8F08F0146402208A826F02FFD1E
:105AF0004022394618A826F02AFDDFF8B481DFF8E5
:105B0000B491C3460BF10F0ACDF800A0102208A9EA
:105B10005B46D9F8000025F0E8FD0022014608F1B7
:105B2000100808AF914246D1CDF800A05B46102284
:105B3000D9F8000018A925F0E1FD4FF0000A8346CE
:105B400018AFD34541D1544B9845DAD10122514B7E
:105B50001A704FF0810A4FF00008DFF85CB1A4F52D
:105B60000627A7F550635B095BF8232004F01F01AB
:105B7000CA40D2073DD4494A52F82330CB40DB0714
:105B80002AD5B8F1000F08BFA0468123A7F6FF472A
:105B9000B7FBF3F303EBC313FF1A07F50624BAF1BF
:105BA000010A04F55064DAD1039BBBB1B8F1000FD0
:105BB00014D0444619E057F8040BCDE90612FFF75C
:105BC00025FF079A06990132ACE757F8040BFFF757
:105BD00039FF0AF1010AB4E7039B13B96FF08B0098
:105BE0007EE7B8F1000F18BF4446349B00201C60CC
:105BF00076E7329B13B10023329A13600EB1002373
:105C000033601023DFF8AC9000932A46002321462E
:105C1000D9F8000013F026FC60BB32992A68204BAB
:105C2000C9B99A4206D02146D9F8000013F0B2FC57
:105C30000028D3D1D5E90223DDE90410834208BF4F
:105C40008A42A2D1039B002BCFD06B68012BCCD111
:105C50006FF0840044E7102032999A420860E2D144
:105C6000002EE7D033462146D9F8000018AA13F0D9
:105C70004DFC48B10B4B9842D5D00B4B9842D2D03B
:105C80000A4B9842D6D029E7329A336812689B1A99
:105C90003360CFE7C62D00200071080044170020B4
:105CA000105D175EFFDF00F011E000F0FEDF00F096
:105CB000006D0800A4300020581700202DE9F04F97
:105CC00087B08246894698461646DDF840B02AB12C
:105CD000002B4FD040F26C739A424ED8BBF1010FAB
:105CE0004ED8002406F110073946012005941DF016
:105CF000BAFB0546002846D021463A4626F027FC46
:105D000005ABCDE9014300942B460122504649469C
:105D1000FFF7BCFE044680B110F18C0F08BF6FF096
:105D20008D043A460021284626F011FC28461DF035
:105D30007CFB204607B0BDE8F08F144BC5E902A9F3
:105D40002B60C5F804B02EB13246414605F1100073
:105D500026F01BFC059E0E483B462A46314600684D
:105D600013F0E8FA18B93046FFF750FED9E76FF0A4
:105D70009104D6E76FF08604DBE76FF09104D8E773
:105D80006FF08504D5E76FF08C04D2E7105D175EE5
:105D9000A43000202DE9F0438DB08146DDE9147870
:105DA0000E4615461C469BB1B8F1000F05D16FF0A9
:105DB000860630460DB0BDE8F083002FF7D0B7F16E
:105DC000005FF4D3C3F1005303F5C0339F42EED814
:105DD0001022002108A826F0BAFB002207AB02938C
:105DE00005AB019306AB31460093484608ABCDE9BD
:105DF0000522FFF74BFE06460028DAD1059BA4B129
:105E0000AB4215D853EA0504D1D1069B0B48C8F81C
:105E1000004000943A46079900682B4413F022FB97
:105E2000002818BF6FF09106C3E7AB42EDD2BEE782
:105E30005B1B9C4228BF1C46E7E700BFA430002044
:105E400030B58DB00C4605461022002108A826F07A
:105E50007EFB002207AB029305AB019306AB214604
:105E60000093284608ABCDE90522FFF70FFE044654
:105E7000D8B9099B012B1BD0079D104B29461868E8
:105E800013F088FBB8B90122A5F506230C49A3F548
:105E900050635B0905F01F00824051F82300424027
:105EA000284641F82320FFF7CDFD20460DB030BD38
:105EB0006FF08404F9E76FF09104F6E7A430002056
:105EC000581700202DE9F04F93B00446DDE91E7508
:105ED000DDE920689346DDE91C028A46DDF88890FA
:105EE00029B96FF08604204613B0BDE8F08FBBF1EE
:105EF000000FF6D00FB9002DF3D108B9002AF0D168
:105F000016B9B8F1000FECD1B9F1000FE9D02C4A65
:105F1000934251D12388B3F5105F4DD12022002147
:105F200002A826F014FB202200210AA826F00FFB6D
:105F300002A81CF04AFB10B16FF09204D3E7204690
:105F40005A4651460AAB1CF069FE04460028CAD1E5
:105F50000A981CF057FE04460028C4D115B9C9F8A8
:105F60000050C0E7B74224D27B199E4221D245455A
:105F7000B7D839462A46304626F0CFFA374615F0CC
:105F80000F0AAED1CDE900762B4652460AA902A8E7
:105F9000FFF700F807460028E1D042465146304658
:105FA00026F0D5FA012FC9F800A0C5D16FF08B04F7
:105FB00099E74545E3D994E76FF0850493E700BF7F
:105FC000004440042DE9F04FB3B00C4605460021D3
:105FD000164602A8202298463C9FDDF8009126F044
:105FE000B6FA202200210AA826F0B1FA20220021C8
:105FF00012A826F0ACFA202200211AA826F0A7FA4F
:1060000000213C2223A8229126F0A1FA34B12EB11E
:1060100027B13E9B13B1B9F1000F05D16FF0860493
:10602000204633B0BDE8F08FB4F800B0B4F802A059
:106030000BF4E043B3F5804FF0D0384B384A2B4097
:1060400043F01063934202D06FF08504E8E70AF151
:106050000703B8EBD30F4FEAD305DFD33F9B9D4235
:1060600058D81AA81CF0B1FA10B16FF09204D7E713
:10607000002301A91AA80193FFF7E8FA0028F4D138
:10608000019B284A23F07F4393420193DCD947F2D6
:1060900012139B45D8D1BAF5807FD5D1224B013759
:1060A0000A933D9B0D90023323F003030F9340238B
:1060B00017936B000E971590139320464246314676
:1060C00022AF02AB16971CF0A9FD04460028A7D109
:1060D0000C9B129043F400531AA80C931CF075FA11
:1060E0000028C2D112AB0AAA02A91AA8FFF7BAF96E
:1060F000064610B1482891D1A6E72A4639463E986F
:1061000026F043FA3346BB550136402EFBD1C9F881
:10611000005085E76FF0890482E700BF0000FFF6BA
:10612000000002090102010020000080F8B51346BA
:1061300042880C460732072A4FEAD20101D0A14219
:106140004DD146680588C76820221846002126F0F0
:10615000FEF9360A0346002E44D1002C3FD041F20E
:106160000102954205D0B5F5885F02D0B5F5905F84
:1061700002D15C60002011E0B5F5105F07D1182C4A
:1061800003D0202C01D0102C29D11C60F1E705F49C
:106190004F42B2F5824F02D06FF08500F8BDEAB2EF
:1061A000122AF9D1202CF7D1104A25F0FF05B5F5B8
:1061B000E24F02600CD0B5F5824F10D14FF400527F
:1061C00017F4705F09D017F4864F04D09A60E3E7A4
:1061D0004FF48042F4E742F480629A60CAE76FF0BD
:1061E0008600DBE76FF08B00D8E700BF200000805F
:1061F0002DE9F04F9A460388144603F44F42B3B09A
:10620000B2F5824F0F46DDF8F89002D06FF08500AE
:1062100056E011B96FF0860052E0002CFAD0B9F1C7
:10622000000FF7D0DAB2122AF0D123F0FF03B3F552
:10623000E24F34D14388C9F800305BBBE300C9F8B2
:106240000030B3F5807FE1D10023184655493D1950
:10625000214411F8016D15F8012D1043921B0CBF5C
:106260004FF0FF360026AF4203EA060343EA02037B
:10627000EFD10028CED0002BCCDA3C9B9C4200F220
:106280008E8022463946504626F07FF93D9B0020FD
:106290001C6015E0DA1DB4EBD20FD2D0BAE7B3F52B
:1062A000824F79D10B78042BB4D12022002101A890
:1062B00026F04DF901A81CF088F920B16FF092008A
:1062C00033B0BDE8F08F0090694601A8FFF7BEF932
:1062D0000028F3D1009B344A23F07F43934295D9A1
:1062E0004FF000083E22414622A8CDF8848026F0D7
:1062F0002EF901234FF0420B2022414609A88DF8C8
:106300008430651E26F023F97B1C2022414611A80B
:106310000D9321AE0E9526F01AF92022414619A8B8
:106320001596CDF858B026F012F9EA005208B2F5E9
:10633000807FCDE91D6BC9F800200BD003D8E02A7F
:106340003FF464AF66E7B2F5C07F3FF45FAFB2F5EC
:10635000047FF5E7154B09AA099311934FF40053F5
:106360000B934FF480431393402311A91A9301A870
:1063700019ABFFF777F8D9F800300733DB085A007C
:1063800033B1531E013B86F8008006F10106F9D2B5
:1063900000283FF472AF3DE76FF0960090E76FF092
:1063A00089008DE7CCE1030001020100200000809C
:1063B0002DE9F04F8FB0DDF8608081460C469246A3
:1063C0009B461A9FB8F1000F05D16FF08604204656
:1063D0000FB0BDE8F08F002FF7D00028F5D02022B5
:1063E000002106A826F0B3F806A81CF0EEF810B1BC
:1063F0006FF09204EBE714F47C1FC4F305452AD038
:10640000102DE2D8199B9D4233D81D4B24F47E14E5
:106410009C4231D1002302AECDE90233CDE90433F1
:1064200052465B464946009606A8FEF70BFE044618
:1064300098B92A463146404626F0A7F823463355F8
:106440000134102CFBD100243D6006A81CF0C7F8D5
:106450000028BCD0CCE71025D4E7212806D001289D
:1064600014BF6FF092046FF08B04EEE76FF08604B8
:10647000EBE76FF08904AAE76FF08504A7E700BF98
:106480000002C00370B50E461446054610B96FF001
:10649000860070BD0029FAD03822002126F057F876
:1064A000094B24F47E129A420AD13388B3F5105F67
:1064B00006D1C4F30543102BE9D800202C60E8E78F
:1064C0006FF08500E5E700BF0002C003F0B50F469E
:1064D00016461D4604468BB088B302B97BBB20220A
:1064E000002102A826F033F802A81CF06EF820B1B3
:1064F0006FF0920420460BB0F0BD2368114A23F4DC
:106500007E13934215D135B9002402A81CF067F818
:106510000028EFD0ECE733463A46009502A9201D4B
:10652000FEF772FE012807D00028EDD06FF092042C
:10653000EBE76FF08804E8E76FF08B04E5E76FF0B6
:106540008604D7E70002C0032DE9F0418CB08846ED
:1065500016461D460446129F002840D0002A3ED011
:10656000002B3CD0002F3AD0102B036828BF1025F9
:1065700013F47C1FC3F3054202D0954228BF154691
:106580001A4A23F47E1393422CD12022002104A81E
:1065900025F0DDFF002304A8CDE90033CDE9023367
:1065A0001CF013F840B96B46424604A9201DFEF7C3
:1065B000A7FD30B100233B606FF092000CB0BDE846
:1065C000F08104A81CF00BF804460028F2D12A46FA
:1065D0006946304625F0D9FF20463D60EEE76FF072
:1065E0008600EBE76FF08800E8E700BF0002C00319
:1065F0000023C36001F13803036120230A6843616B
:106600008B6D0B4922F47E128A42436003D001F560
:1066100080718A4208D1102B01D0182B02D103605F
:1066200000207047202BFAD06FF08800704700BF21
:106630000001C00330B58BB06D46604C0FCC0FC568
:1066400054F8043B68462B604FF07E6393F89C300F
:106650006D46FF2B08BF25238DF80130FEF742F968
:106660003220FEF777F90FCC0FC50FCC0FC594E899
:10667000030085E80300524BD3F84C21110340F18D
:106680008380A3F5FE431C884FF6FF739C4208BF2E
:1066900081248DF81940FEF7F3F8044484F30804CC
:1066A00048488DF81840FDF78DFA6846FEF71CF84B
:1066B0003220FEF755F9444C4448FDF7C5FF4448E5
:1066C000FEF754F91BF0A7FE236F002023F0070309
:1066D00043F002032367236F23F4505343F4806392
:1066E00023671BF09FFE3B4BD3F8FC20D2014FD415
:1066F000D4F8803023F0030343F00203C4F8803061
:10670000314BD3F8202122F0070242F00102C3F8F6
:106710002021D3F8802122F0030242F00102C3F8C5
:106720008021D3F8402122F0030242F00202C3F894
:106730004021D3F8602122F0030242F00202C3F8A4
:106740006021D3F8402222F0030242F00202C3F893
:106750004022D3F8002222F0070242F00202C3F8DE
:106760000022D3F8082222F0070242F00202C3F806
:106770000822FDF749FF4FF0E0220020136963F083
:10678000040313610BB030BDD3F85041E4B280E78D
:10679000D3F8FC2022F08072C3F8FC20D4F88020CB
:1067A00022F0030242F00202C4F88020D3F8FC2059
:1067B00042F08072C3F8FC20A2E700BFECE10300C6
:1067C0000080E00F00F049020080005000B4C404D3
:1067D000C0EA210100ED00E06FF00403502110B584
:1067E0000A480B4C13F0800F03F1010206D1234439
:1067F0003D2A83F800131346F4D110BD03F00F03B4
:10680000043B034419761346ECE700BF00ED00E0BB
:1068100000E100E0BFF34F8F0549064BCA6802F460
:10682000E0621343CB60BFF34F8F00BFFDE700BFB3
:1068300000ED00E00400FA05002807DB0123410910
:10684000034A00F01F00834042F82130704700BF28
:1068500000E100E0002808DB01224309034900F0C1
:106860001F008240603341F82320704700E100E0C0
:106870000028ACBF00F16040064B4FEA0111C9B2DD
:10688000ABBF00F5614000F00F0080F80013195411
:10689000704700BF14ED00E010B504461BF04CFD3E
:1068A000024B1C601BF04CFD002010BD6C1700203B
:1068B00010B51BF041FD034B1C681BF041FD204649
:1068C00010BD00BF6C170020034B02221868002384
:1068D0008068194619F0E6BFAC31002073B500247A
:1068E000684600F0F1FA0C4B00981C600B4B0C4D05
:1068F0001C600C4E0C4B306018602C601CF0D1FDFD
:106900002046019B3268013BDB0853802B68013332
:106910002B6002B070BD00BF7417002070170020FC
:1069200078170020801700207C1700202DE9F04FF9
:106930000027924687B04A1C0E4614BF0C46082416
:1069400099460597002B00F0B0801F60002800F0EA
:10695000AE80073020F007051BF0F5FC05AB314693
:106960000290009352463B46284600F0B7FA059E37
:10697000804606B130B902981BF0EBFC192007B035
:10698000BDE8F08FDFF83CB17788DBF80010FB0042
:10699000C0EBC7070139272FCBF800106CD9BAF12B
:1069A000000F48D1854205F1080740D02146304606
:1069B0001CF0F5FC04460590059B1F4438461CF06E
:1069C00070FD059905F10F034A88C3F3CF03D21A6E
:1069D0007A80CA88BB8062B3D31A9BB201EBC20231
:1069E000FB8093808B88ED08A380BB880022314612
:1069F00038466580E38000F0E9FA237843F001032C
:106A00002370DBF800300133CBF800302B4A0298BA
:106A10001368083443441360294A11688B4288BFC5
:106A200013601BF096FC0020C9F80040A7E734462D
:106A3000C2E7FA80D6E7F419204603931CF031FD33
:106A400008F10702D20805996280FA1DD208A280D7
:106A5000CA887AB1D200039BD01DC31A4344C3F342
:106A6000CF030A44E3809380A388013FFF084F804F
:106A7000CB80C2E7E280F7E7BAF1010F19D106F146
:106A80000803B3FBF4F204FB1233A3B121463046F2
:106A90001CF085FC04462378012243F001033146B3
:106AA0002046237000F092FAB0E7222067E7212009
:106AB00065E78542EAD13446EDE700BF7417002050
:106AC00070170020781700202DE9F3470446684628
:106AD00000F0FAF9002C00F0C2801BF034FC14F82E
:106AE000085CEB0704D534F806ECBEF1000F05D1C5
:106AF0001BF02FFC012002B0BDE8F087DFF870C169
:106B000034F8041CDCF800800EF1010208F10103E6
:106B1000A4F1080692B2CCF80030002938D0A6EBD8
:106B2000C10393F800A0B3F806901AF0010F5F8834
:106B300005F0020520D105BBA9EB0701012927D8E3
:106B40000EF102021744BAB2CCF8008034F8025CAD
:106B500005BB14F8085C511E6FF3000504F8085CCF
:106B6000002589B224F8065C5980197865F3000184
:106B700019700021D98031E055B111448AB214F85E
:106B8000081C6FF3410104F8081C00219980DDE71F
:106B90003346DBE706EBC508DDE900710F44B84575
:106BA000D7D216F83560414616F001062ED014F8FB
:106BB000086C551E6FF3000604F8086C002624F8D4
:106BC000066C1C78ADB266F300045D801C70C3F1E6
:106BD00007040C44C4F3CF04DC808C80214C216872
:106BE00019B1994201D8498801B923601E4C216826
:106BF00019B1994201D3498801B923601B490B6837
:106C00009B1A0B601BF0A5FB002074E7A5EB0E059B
:106C1000012DCCD8B8F80250A8F8026001352A44FA
:106C2000B8F8065092B2C5B108EBC501DCF80050C7
:106C3000013DCCF8005014F8085C6FF3000504F82F
:106C4000085C002524F8065C541E5C801C7865F303
:106C500000041C700029BAD18BE72946E6E7222000
:106C600049E700BF801700207C1700207417002020
:106C7000781700202DE9F84F04460D469146002A6A
:106C800000F017810023136040B9002900F0138140
:106C900001462846BDE8F84F1CF0C1BB19B9BDE854
:106CA000F84FFFF711BF1BF04EFB34F8063C0735D9
:106CB0004FEAC30825F00705A8450746A4F10800D8
:106CC00080F0848034F8022C002A65D000EBC20AE0
:106CD00010F83220D2075FD4BAF80210A8EB0506EC
:106CE00016EBC10658D41F2E3DDDC5F3CF0304EBD0
:106CF000050B24F8063C013324F8023C58461CF0EE
:106D0000D0FB34F8023CC6F3CF06ABF80430BAF837
:106D10000630ABF802601BB3BAF802209A1A164488
:106D2000B6B20AEBC303ABF806609E800022514660
:106D3000584600F04BF950461CF0B3FBC9F8004030
:106D40005E4A13682B44A3EB080313605C4A116886
:106D50008B4200D9136038461BF0FBFA002625E071
:106D6000ABF80630E2E7574E0B4432689BB2013A6B
:106D700032605A1C24F8062CBAF806204AB10233B5
:106D80009BB20AEBC20224F8023C938001225146D6
:106D9000CFE724F8022CF9E74A46002128461CF0E8
:106DA0003EFB064628B138461BF0D3FA3046BDE814
:106DB000F88F42462146D9F8000025F0E6FB204630
:106DC000FFF782FE06460028BAD0ECE76ED934F809
:106DD000023CA8EB050B002B38D000EBC30610F8E3
:106DE0003330DB0733D4C5F3CF0304EB050A24F8B3
:106DF000063C013324F8023C50461CF052FB7388D9
:106E000034F8022C03EBDB03AAF80420F2889BB2CF
:106E1000AAF80230BAB101339BB206EBC202AAF85B
:106E20000630938050460022314600F0CFF83046BD
:106E30001CF037FB214BC9F800401A681544A5EB3C
:106E400008051D6087E7AAF80620EBE71E46BBF1A0
:106E5000270FEFD9C5F3CF0304EB050A24F8063C4E
:106E6000013324F8023C50461CF01BFB34F8022C82
:106E7000CBF3CF03AAF80230AAF8042096B1F28827
:106E800082B101339BB206EBC206AAF80630B3808A
:106E90000C4A00211368504601331360012200F0B0
:106EA00095F8C7E70023AAF80630F1E7C9F80040D3
:106EB00051E722267AE7212678E700BF74170020E1
:106EC00070170020781700200249034A0160521A07
:106ED00042607047A832002000800120F0B50646CD
:106EE0000020059F4C1C08BF08213860BAB91F4814
:106EF0000568002D38D0B5F802E0DB0003EBCE0EBC
:106F0000C1F1000C2878C0070BD52ABBE888B0B1C6
:106F100005EBC005B5F802E003EBCE0EF2E714482E
:106F2000E6E7B645F1D35AB905F10804B4FBF1F030
:106F300001FB1044A0190CB17045E7D83D60F0BDCD
:106F400008290FD06C88013405EBC404A01B00EAAB
:106F50000C00201A8645F1D2A8880028EFD0A5EBB6
:106F6000C005D7E73046E9E72846E8E78017002064
:106F70007C170020134B13B51B6804460846FBB171
:106F800021B96846FFF7A0FF6CB900980378D907CC
:106F900007D55CB9C3889BB100EBC3000378DA075F
:106FA000F8D402B010BD084B1868EFE7012C07D1E8
:106FB00083882BB1A0EBC3000378DB07F8D4F0E79C
:106FC0000020EEE7781700207C170020F8B5124F5C
:106FD00005460C463B68114EB2B1994209D041B109
:106FE0003368994204D129460120FFF7C3FF30607E
:106FF000F8BD29460020FFF7BDFF33683860A34283
:10700000F1D0002CEFD0F3E79942336808BF386025
:107010008B4208BF3060EBE7801700207C17002010
:10702000BFF35F8F074B5A6A22F480325A62D3F85B
:10703000942022F00102C3F89420BFF34F8FBFF3D6
:107040006F8F704700ED00E038B5FFF7E9FF284A81
:107050002848D2F8C030284D23F0FF0343F0A003A6
:10706000C2F8C030254B04689D4204F101011ED1D5
:10707000234BC2F89840C2F89C3003F5BF3303F5A8
:10708000FF73C2F8A0300160BFF35F8F0522184B79
:10709000C3F894205A6A42F480325A62BFF34F8F89
:1070A000BFF36F8FBFF34F8FBFF36F8F38BD23F0E8
:1070B0001F03203BB3F1005F09D3C2F89840104C86
:1070C00043F00103C2F89C40C2F8A03001600D4BB0
:1070D0000168074A23F01F0343F00303C2F8981026
:1070E000C2F89C30084B0131C2F8A030CBE700BF9A
:1070F00000ED00E08417002060300020C02E00204A
:10710000030000207F300020E17F01202DE9F041C5
:107110000D461146DFF8E080D8F80040B4F5807FD6
:1071200034BF00271A27FFF77BFF1F292ED9002124
:10713000C2061CBF20F01F0020302E4EEB0618BFE9
:1071400025F01F05CBB29C4235D8D6F8C03020F0D0
:107150001F0023F47F4343F48073C6F8C03040F02F
:1071600003041BF0F0F8D8F8003025F01F0141F0BF
:107170000301C6F89830C6F89C40C6F8A0101BF072
:10718000E8F8D8F800300133C8F80030BFF35F8F5B
:107190000522184BC3F894205A6A42F480325A628E
:1071A000BFF34F8FBFF36F8FBFF34F8FBFF36F8F5F
:1071B0003846BDE8F081C6F89830D6F89C30D6F84D
:1071C000A02023F01F03984222F01F0201D1954214
:1071D0000BD0904201D89D4209D2D6F898300131A7
:1071E00023F0FF03C6F89830ACE70027CEE7282746
:1071F000CCE700BF00ED00E084170020BFF34F8F05
:107200000549064BCA6802F4E0621343CB60BFF342
:107210004F8F00BFFDE700BF00ED00E00400FA055E
:10722000054B1A782AB95B78002B0CBF032002208B
:1072300070470120704700BFD02D00200329F8B50A
:1072400098BF124B05460E468CBF00245C5C032899
:1072500005D8DFE800F002080B0E44F002040C4BE6
:107260001F684FB9F8BD44F00804F8E744F0200463
:10727000F5E744F08004F2E77B681A68144203D013
:10728000314628465B6898473F68EAE740E20300DA
:10729000B417002038B5104D2B78ABB10F4C2378C4
:1072A0001BB100F037FB0023237000201CF00FF906
:1072B0000B4C50B100F080FB0023012120782B7093
:1072C000FFF7BCFF0123237038BD0122054B1A7064
:1072D0002278054B1A70F7E7CC2D0020CA2D00202C
:1072E000D22D0020CD2D0020CE2D002010B51BF07A
:1072F00023F8064B04461B781BB1BDE810401BF079
:107300001FB8FFF7C7FF2046F7E700BFC92D0020D1
:10731000094A137830B101331370084B1B78012BE5
:1073200003D87047013B13707047054B1B780BB9AE
:10733000FFF7B0BF704700BFD02D0020D22D002036
:10734000CD2D002070B51AF0F7FF174E05461748EF
:107350001BF021FF3378D3B900F05EFC044620B166
:1073600028461AF0EDFF204670BD11481AF0F4FFD0
:1073700000F04CFF0F4B1C6000F036FD0E4B0F4A27
:107380001860536F43F0010353671CF0A7F800F037
:10739000C5F91CF09EF80A4B00241860012328460A
:1073A00033701AF0CDFFDEE7D32D00203CE203005E
:1073B000B417002088170020B017002000400050AC
:1073C0008C1700202DE9F843284A0138135C39B1A5
:1073D000274F013339781354012904D8BDE8F883C5
:1073E000013B1354FAE7FFF71BFF0128044635D889
:1073F0001AF0A2FFDFF88480054698F8003013B336
:107400001C4E33781BB9012232701B4A1370DFF80F
:10741000709099F8003023B100F07CFA002389F8CD
:10742000003028461AF08CFF01201CF050F81AF0AA
:1074300083FF337805461BB100F0BEFA002333709A
:10744000002388F8003028461AF07AFF3878844202
:10745000C4D02146FFF7F2FE3C70BFE70329F5D107
:107460000228F3D11CF039F8F0E700BFD02D00203E
:10747000D22D0020C92D0020CD2D0020CC2D0020A4
:10748000CA2D002038B51AF057FF094B05461B7866
:10749000012B04D81AF054FF0024204638BD054BB8
:1074A0001C6800F0C7FA044428461AF049FFF4E7C4
:1074B000D22D00208817002038B5416004461AF00C
:1074C0003BFF0546214604481AF049FF2846BDE81F
:1074D00038401AF035BF00BFB4170020054B1B68B9
:1074E0005843054B00F5742000F23F20B0FBF3F049
:1074F000704700BFB017002040420F002DE9FF4742
:10750000EFF3108772B6AFF300801AF070FE002818
:1075100071D06D4EDFF8D481337823B10020FFF7AE
:10752000F7FE00233370FFF77BFE0446002869D086
:10753000841EE4B2012C6CD9FFF772FE01280546C7
:10754000624CDFF8AC9100F28E802078A84205D022
:1075500099F80030002B00F0A5802570207800F00D
:1075600053FA99F8003013B1594B1B782370AFF3DD
:10757000008007B962B6EFF3108772B6554B1A78E0
:1075800052B100221A70524B20781B78984203D1D6
:1075900001212170FFF752FE4F4800F077FB1AF0EF
:1075A00035FE05460028B7D1DFF8488198F800304D
:1075B000A3B189F80000DFF8309199F800301BB1D1
:1075C00000F0A8F989F8005000201BF080FF002887
:1075D00070D000F0F1F9002388F80030337823B13F
:1075E0000020FFF795FE0023337000212078FFF77D
:1075F00025FE00232370AFF3008007B962B604B004
:10760000BDE8F0873378002B96D0FFF781FE347009
:1076100092E7002003A900F087FB044600288BD1E5
:10762000D8F80030039A9A4205D80120FFF770FE7F
:107630000123337080E7294B1D6800F0FBF9039BA1
:1076400005449D42F1D200F00DFA8200039942F008
:10765000020292B2CDE900422346214A491B1E484C
:107660001BF04AFF68E7DFF88CA09AF800300BB9EE
:1076700000F0E2F82078854203D099F80030ABB1F1
:1076800025709AF80030002B7FF468AF154B1B78FB
:1076900023B900F039F90122134B1A7001238AF83B
:1076A00000305BE72946FFF7C9FD56E72946FFF79B
:1076B000C5FDE5E7012000F0A7F907B962B6EFF3D1
:1076C000108772B680E700BFCB2D0020D22D00209E
:1076D000CE2D0020C72D00209017002088170020F5
:1076E000ED720100CF2D0020CA2D00208C17002044
:1076F000CD2D0020CC2D002010B51AF01DFE00224B
:10770000054B1C781A701AF01BFE00F0BDFCE4B2A9
:107710002043C0B210BD00BFC82D00203B4A3C49E9
:10772000136F70B503F007030B60D2F800113948EE
:1077300001F0030101603849384D8969032BC1F319
:107740004001297059D0D2F8203103F00703981E68
:1077500043424341D2F88022314C02F001021343EC
:107760004FF4C8702370FFF7B9FE00222D4B2E494D
:1077700018602E4E0B680132D2B20A2A46F8040B6A
:10778000F9D1034400EBC00003440B602B78284D73
:1077900063B323781D4A3BB9D2F8003103F00303E9
:1077A000591E4B424B412370D2F8003103F00303C2
:1077B000022B24D0032B25D0012B17D1FCF7FCF989
:1077C000024698B1144B1B4EDC6800231946C4F3E3
:1077D0000B04013404EB84040138E4FB060118F0C7
:1077E0001BFEFFF77BFE2B6803442B601F20FFF777
:1077F00075FE2B6803442B6070BD0123AAE7FCF7DC
:1078000039FADDE71AF090FDDAE700BF008000509A
:10781000F0170020F417002000C00150D72D0020E1
:10782000D82D0020B8170020BC170020C01700205A
:10783000EC17002040420F00044B054AD3F82031DA
:1078400003F0070313601AF0FCBD00BF0080005076
:10785000F817002008B50D4B1A7892B100221A7063
:107860000B4A136F23F0070343F001031367D2F8A9
:10787000203123F0070343F00403C2F82031FCF762
:1078800085F90122034B5A6708BD00BFD62D0020A1
:107890000080005000E000500122154B10B55A67DF
:1078A000144B154C1B7813B302201BF0CAFEF0B129
:1078B00000F06AFAD8B1A36DD90302D5E36D9A0737
:1078C00015D40D4B9B6DDB0711D401220B4B1A70A5
:1078D0001BF096FEBDE81040094B0A4A1860136F72
:1078E00023F0070343F003031367FCF74FB910BD00
:1078F00000D00050D82D002000C00050D52D002011
:10790000E8170020008000500122014B1A707047D8
:10791000D62D0020F8B51F4B1B78002B39D01E4CFC
:107920002378B3B91D4B9A6DD10302D5DA6D920756
:107930002FD49B6DDB072CD41BF062FE184B194A29
:107940001860136F23F0070343F003031367FCF77A
:107950001DF91BF055FE124B134D1B68134EC01A38
:107960002B78134F56F8232046F82300111A3A6853
:107970001048521A0A213A600932B2FBF1F201337F
:10798000DBB20260B3FBF1F201FB12332B70002378
:107990002370F8BDD82D0020D52D002000C0005048
:1079A000E817002000800050D42D0020C0170020D0
:1079B000BC170020B817002008B51AF043FD0D4A87
:1079C0000D49136F096823F007030B4313670B4935
:1079D000D2F82031096823F007030B43C2F82031A5
:1079E000074B1B7813B10122064B9A62BDE8084091
:1079F000FCF7CCB800800050F0170020F8170020EA
:107A0000D82D002000E0005002280AD003280BD017
:107A100001280CD1064A136923F00403136130BF17
:107A200070470020FDF708B80020FDF725B8704723
:107A300000ED00E0054B187818B1054B186800EB15
:107A4000D000044B1B681844704700BFD82D00209D
:107A5000B8170020EC1700200122014B1A70704764
:107A6000D82D0020014B1878704700BFD82D00207A
:107A700038B51BF0D3FD0025084B094C1A68236864
:107A8000C31A2AB123B15169994203D3C91A51616A
:107A9000206038BD55615B1A9268F2E70418002037
:107AA00000180020C38870B504460D463BB9FFF7A7
:107AB000E9FC8542064602D21BF0FDFC35460E4924
:107AC00065610B688BB90C60A3600DE0AD1A9A6814
:107AD000184665616AB113465A69AA42F6D930B1AF
