:020000021000EC
:10200000C00A00202D3B0100A7240300A7240300E1
:1020100047360300A7240300A7240300A7240300D6
:10202000A7240300A7240300A7240300A724030078
:10203000A7240300E4E1030059380300A7240300A8
:10204000A7240300A7240300A7240300A724030058
:10205000A7240300A7240300A7240300A724030048
:10206000A7240300A7240300F5820100A72403008E
:10207000A7240300A7240300A7240300A724030028
:10208000A7240300A7240300A7240300A724030018
:10209000A7240300C93E0100A7240300A7240300CE
:1020A000A72403009526010075260100A72403003C
:1020B000A7240300A7240300A7240300B1040300FE
:1020C00099C5030095C5030045FC0200A5C50300A2
:1020D0009DC5030075040300A1C50300A9E102002A
:1020E000F1040300A7240300A7240300A72403008E
:1020F000A7240300A7240300A7240300A7240300A8
:10210000A7240300A7240300A7240300A724030097
:10211000A7240300A7240300A7240300A724030087
:10212000A7240300A7240300A7240300A724030077
:04213000A7240300DD
:10213400F0B5114A114C124E00F00105E3695F0736
:1021440013D40DB9334213D103EA00078F4207D1E8
:102154000B4A1A40002A0CBF00206FF00100F0BDAA
:10216400013AEBD16FF00200F9E74FF0FF30F6E7E8
:102174006FF00100F3E700BF809698000000035061
:10218400020001000B4B70B5D96911F480310DD1F7
:1021940001244FF48072084E084DF46020462C64EC
:1021A4001A61FFF7C5FF3464EC6070BD6FF0010085
:1021B400FBE700BF00000350001003500020035051
:1021C40038B541F6713301220C4C0021E569E36313
:1021D4000B4B05F48035DA60022360612120236112
:1021E400FFF7A6FF10B92120FFF7A2FF0122054B3C
:1021F400DA600DB10023E36338BD00BF0000035073
:10220400001003500020035070B5134C6061E36963
:102214005B071ED40E4656F8043B8D18A361AE42EC
:102224000BD10423002121202361FFF781FF58B93A
:10223400BDE870402120FFF77BBF08210846FFF767
:1022440077FF10B10423236170BD56F8043BA361EA
:10225400E5E74FF0FF30F7E7000003502DE9F843BE
:10226400154641F67132164B8946DF69DA6301225D
:10227400064603F58053DFF8508007F48037DA60B0
:1022840055B9284601220F4BDA601FB10022A3F58D
:102294000053DA63BDE8F88306F5005404EA080441
:1022A400A41BAC4228BF2C46494622463046FFF7C1
:1022B400ABFF0028E6D12644A1442D1BE0E700BF74
:1022C400000003500020035000E0FFFF0000000066
:1022E000013800D0FCE77047002370B5404C05462C
:1022F0008AB0E36318B1008823600CF0A3FA3D486C
:1023000029F080FC3C4E3D4B304633603C4B7360C3
:1023100025F08CF80021304617F0C0FB32A3D3E93A
:102320000023A062C4E9062325F08BF8D4E9062334
:1023300019431043C4E90601CDE900014FF0FF3312
:102340004FF0FF32A06A29F0B1FC02224FF0FF31BA
:10235000A06A29F0B0FC01200BF0D0FE4FF400730E
:1023600000222849A06A29F0F7FCB0F5007F38D197
:1023700000239422CDE9073309933C23CDE90332AE
:1023800005939623A06A03A9069317F06FFC35B353
:10239000287C0CF0F7FA0546F0B9A06A29F0B8FDE0
:1023A0000CF09EFA0BF08CFE20B14FF480700021EF
:1023B00008F014FF0BF094FE20B14FF400600021F0
:1023C00008F00CFF25F063F9012017F0BDFB0E4A61
:1023D0000E49A06A25F028F828460AB070BDFF20F3
:1023E000D7E70725F8E700BF0DD50155200000000D
:1023F000300B0020690345EC881D002081DF0100BF
:10240000981D0020881B0020D17303001174030065
:102410000348044B834202D0034B03B11847704773
:10242000A8320020A832002000000000064B074917
:10243000C91A891048BF0131491003D0044B0BB1B0
:1024400001481847704700BFA8320020A83200207A
:102450000000000010B5064C237843B9FFF7D8FF01
:10246000044B13B10448AFF300800123237010BD67
:10247000A225002000000000B811040008B5054B9B
:102480001BB105490548AFF30080BDE80840FFF7E0
:10249000CDBF00BF00000000980D0020B81104005F
:1024A000A3F5803A704700BF174B002B08BF134BB2
:1024B0009D46FFF7F5FF00218B460F461348144A4F
:1024C000121A2AF010F90E4B002B00D098470D4B32
:1024D000002B00D098470020002104000D000D487B
:1024E000002802D00C48AFF300801EF0ADFB2000A6
:1024F000290000F04FFE1EF0B9F900BF00000800EF
:102500000000000000000000C00A0020C00A0020F7
:10251000C02E0020000000000000000038B501259A
:102520000B4C002101201FF09DFC04F500531D649D
:1025300044F2506004F5805405F01AFF142025641D
:1025400005F016FF2846BDE8384000211FF08FBC7B
:1025500000C0035010B50B4C282005F009FF636C38
:10256000DA070CD4502005F003FF636C13F0010F61
:102570000CBFFF200120636CDB07FCD410BD0020E2
:10258000F9E700BF00C00350F8B500240725012774
:102590000A4E736CD907FCD5282005F0E9FE726C51
:1025A00007FA05F3D2074ABF1C439C43E4B2736C9D
:1025B000DB07FCD4013DECD22046F8BD00C003503F
:1025C0002DE9F0410446FFF7A9FFFFF7C3FF134BC6
:1025D000DFF85C801870FFF7D7FF88F80000FFF77E
:1025E000D3FF0F4E0F4F3070FFF7CEFF3870FFF75D
:1025F000CBFF0D4D2870FFF7C7FF0C4B98F800205C
:102600001880337839782D7813440B442B44984242
:1026100008BFC4E90012BDE8F08100BFA325002077
:10262000A6250020A5250020A42500204425002063
:10263000A7250020094B1A78094B19684A29CBB203
:1026400006D90849096819B908200749C1F8A00046
:1026500006490748097800F0BFBA00BFB40D002052
:10266000B00D0020F00D002000D003507E3200207D
:10267000A825002045F25551054B03F50052C2F83C
:102680002014042203F54053C3F8A020704700BF74
:1026900000C003504AF6AA21064B03F50052C2F8C7
:1026A0002014082203F54053C3F8A0200122024B56
:1026B0001A60704700C00350F00D0020024B1860F4
:1026C000024B1960704700BFB40D0020B00D002010
:1026D00037B51FF0D1FB01234FF4FA610093164A7E
:1026E0000023164801F004F9054610B3144C1549AF
:1026F000206820F0EBFE1449206820F0E7FE1FF070
:102700007EFE1FF07DFE114B114A009311499A2362
:10271000206820F0DBFE10492B46104A206820F08C
:10272000D5FE284601F088F80D49206820F0CEFE3D
:10273000FEE703B030BD00BF35260100B80D002014
:10274000A40E002081DE030088D603001CD70300FE
:102750008DD6030096D60300A5D60300A2D60300AB
:10276000BAD60300AB4B2DE9F041D3F8A070D3F8F3
:10277000A0600368A84A23F47F4323F00703934231
:1027800088B006D0A54A934200F0ED8008B0BDE8BD
:10279000F0810DF10F0104A80FF062FFA04C054677
:1027A00008B3A049206820F091FE9F49206820F0DE
:1027B0008DFE1FF024FE1FF023FE9C4B9C4A0093CD
:1027C0009C49C123206820F081FE9B492B469B4AEF
:1027D000206820F07BFE284601F02EF898492068FA
:1027E00020F074FEFEE7BDF8143001465BBAADF888
:1027F00018309DF8133008228DF81A30FF238DF819
:102800001B30FE238DF81C309DF8123018208DF8F7
:102810001D30BDF810305BBAADF81E3006AB0FF0BE
:10282000F1FE054608B37F49206820F04FFE7E493F
:10283000206820F04BFE1FF0E2FD1FF0E1FD7B4B16
:102840007B4A00937B49D123206820F03FFE7A49E0
:102850002B467A4A206820F039FE284600F0ECFF2B
:102860007749206820F032FEFEE7DFF8E881404635
:102870000FF02AFE054608B36A49206820F026FEBC
:102880006949206820F022FE1FF0B9FD1FF0B8FD55
:10289000664B674A00936749D523206820F016FEEF
:1028A00065492B46654A206820F010FE284600F056
:1028B000C3FF6349206820F009FEFEE74FF4C862B9
:1028C00000900346114698F800000FF015FE0546EB
:1028D00008B35449206820F0F9FD5349206820F0DE
:1028E000F5FD1FF08CFD1FF08BFD504B504A0093FF
:1028F0005049DE23206820F0E9FD4F492B464F4A1E
:10290000206820F0E3FD284600F096FF4C4920683F
:1029100020F0DCFDFEE7072198F800000FF00EFE26
:10292000484BC6F3C00640F2FF22062146480193F9
:102930000096C7F380031FF0D2FA1FF060FD1FF06E
:102940005FFD4249206820F0C1FD98F800103E4824
:1029500000F0DCF81FF053FD1FF052FD3C492068E9
:1029600020F0B4FD12E73B4C022120780FF010FE5E
:10297000054610B32A4C2B49206820F0A7FD2A49B0
:10298000206820F0A3FD1FF03AFD1FF039FD274B12
:10299000274A00932749FE23206820F097FD264907
:1029A0002B46264A206820F091FD284600F044FF7F
:1029B0002349206820F08AFDFEE7022120780FF0ED
:1029C000FBFD054600283FF4E1AE154C1549206893
:1029D00020F07CFD1449206820F078FD1FF00FFDE9
:1029E0001FF00EFD114B124A0093124940F20313DF
:1029F000206820F06BFD10492B46104A206820F01B
:102A000065FD284600F018FF0D49206820F05EFDA6
:102A1000FEE700BF00C00350A0000100A0000601B7
:102A2000A40E002081DE030088D603000DD703002A
:102A30008DD6030096D60300A5D60300A2D60300C8
:102A4000BAD60300CBD60300A8250020DBD60300AE
:102A5000F7D603007E32002030B5154C85B01FF04C
:102A6000E4FC002000F0D4F9204600F039FA0025FB
:102A70006FF07F432046C4E901351FF06DFA204610
:102A80000C491FF0CDFB0C4B20461A68511C1960F5
:102A9000052301210093CDE90131D2B22B4607492C
:102AA0001FF0D1FB05B0BDE8304000F0D9B900BF40
:102AB000F80D0020DCD70300F40D002025D703001B
:102AC0001FB5052301220146CDE9013200930448D8
:102AD00000231FF0B8FB05B05DF804EB00F0C0B9AF
:102AE000F80D00201FB5052301220146CDE9013272
:102AF00000930222002304481FF0A5FB05B05DF8F7
:102B000004EB00F0ADB900BFF80D002037B50C465E
:102B10000346027F002120460FF024FD0546F8B150
:102B2000234C2449206820F0D1FC2349206820F060
:102B3000CDFC1FF064FC1FF063FC204B204A009387
:102B400020493223206820F0C1FC1F4A1F49206819
:102B500020F0BCFC2A461E49206820F0B7FCFEE7A6
:102B6000022120460FF028FD0546F8B1104C11490E
:102B7000206820F0ABFC1049206820F0A7FC1FF073
:102B80003EFC1FF03DFC0D4B0D4A00930D493723D1
:102B9000206820F09BFC0C4A0C49206820F096FC31
:102BA0002A460C49206820F091FCFEE703B030BDB6
:102BB000A40E002081DE030088D60300CFD70300D7
:102BC0002FD7030096D603003FD7030052D7030048
:102BD0006AD7030096D7030037B504460846A372A8
:102BE000190A130A6172E371227223460021227FBF
:102BF0000FF0B8FC0546F8B1104C1149206820F0E0
:102C000065FC1049206820F061FC1FF0F8FB1FF004
:102C1000F7FB0D4B0D4A00930D494623206820F029
:102C200055FC0C4A0C49206820F050FC2A460B4900
:102C3000206820F04BFCFEE703B030BDA40E00205E
:102C400081DE030088D60300BFD703002FD703001F
:102C500096D603003FD7030052D703006AD703007C
:102C60000123054A411100F01F00834052F8210062
:102C7000034342F821307047240E0020044B1B68A8
:102C80001BB1044B0360002070470120704700BF58
:102C9000340E00204625002070B50D4C246884B108
:102CA0000C4C85182688B5420DDC6688CD18B542D7
:102CB00009DC52B14BB1A0800020E1802281638108
:102CC00070BD0120FCE70420FAE70520F8E700BF0B
:102CD000340E0020462500202DE9F74F9946494B38
:102CE0001B68002B00F08A80B9F1000718BF01278C
:102CF0004FF0010BDFF814A17F42BAF80650BAF882
:102D00000A300D9E2B449BB20D440093FFB2ADB22E
:102D10001EB9304603B0BDE8F08F009AABB29A42BC
:102D20006ED9BAF80840BAF80430241AB44228BF61
:102D300034461844344B361B80B203EB0512B9F10C
:102D4000000F0AD0072C26D80444A04216D32846E8
:102D5000FFF786FF01350020DAE7072C1BD8044473
:102D6000A042F4D2C108535C00F0070C0BFA0CFC33
:102D700023EA0C030130535480B2F1E7C10812F882
:102D800001C000F007030BFA03F343EA0C03013020
:102D9000535480B2D9E74FEAD00C02EBD00810F0C0
:102DA00007000BD1E20839464046019229F09BFC0E
:102DB00014F00704019ACAD0904412E00BFA00F311
:102DC00012F80CE0DBB2591E5B420EEA01013B40F7
:102DD00008381943044402F80C10E20808F101080D
:102DE000E1D10BFA04F498F80030E4B26242013CFD
:102DF00013403C40234388F80030A8E7012688E7C9
:102E0000042686E7340E0020C52500204625002034
:102E100037B5114D2B68EBB900F044F9044610B1F9
:102E2000012003B030BD00F031F928600028F7D050
:102E300002884188094B20461A801A814A435980EA
:102E400059819C80DC802146CDE900422346224600
:102E5000FFF742FF0020E4E7340E00204625002063
:102E60002DE9F843002301251A461A4FDFF86C803C
:102E70003C68DFF86490D8F80000D61841888E428C
:102E800007D3FBB910220021124829F02CFC0020A6
:102E900012E0E10708D50133D118C9060ABF57F877
:102EA000254064080135E6E753B109EB021100F053
:102EB000B1F8034610B10720BDE8F883721CEBE7B8
:102EC0000132E9E7044901EB021100F0A3F8002800
:102ED000D8D0F0E7240E0020C5250020340E0020B5
:102EE00030B5054687B000B300226FF07F43C0E9DC
:102EF000012301A8FFF7C2FE044698B9019BCDE962
:102F000002001A882B605B88013A013B284602A91F
:102F1000049205931FF04BF8044618B9284604495B
:102F20001FF07EF9204607B030BD0524FAE700BF48
:102F30000CDB03000122014B1A61704700F00350C3
:102F400013B5044604F0EAFF00230122217BCDE9FA
:102F500000324900B0FBF1F1024A034820F0B7FB10
:102F600002B010BD352F01004C0E0020F7B5082629
:102F70000E4C054604F580531E67407B05F0F8F9BA
:102F800004230B4F02220DF106013846ADF806303E
:102F90001FF088F938461FF096F9A87B05F0E8F98C
:102FA000002004F50054266703B0F0BD00C00350B4
:102FB0006030002070B50646124820F0B8F9B168BC
:102FC0000022114800F07EF8002304220321022091
:102FD00001F012FE002335460C4C04221946184617
:102FE00001F00AFE0FCD0FC401222B68304623608A
:102FF000074B1A70FFF7A4FF3046FFF7B7FF00201A
:1030000070BD00BFDCE3030060300020380E0020FC
:10301000C52D0020F7B5144608221D46184B07465B
:103020001A67407B0E4605F0A3F9012215480DF101
:103030000201ADF8022025441FF034F92246114C5C
:103040009542019208D8B87B05F092F90822002039
:103050000D4B1A6703B0F0BD012201A920461FF0F5
:1030600021F93146102220461FF01CF9012220468A
:1030700001A91FF017F9019A10360132E0E700BFED
:1030800000D003506030002000E00350034B0448A0
:103090001B78002B08BF0020704700BFC52D002003
:1030A000380E002030B5064D87B001AC0FCD0FC4EF
:1030B0002B6801A82360FFF77DFF07B030BD00BF7C
:1030C0003CDE03002DE9F04F04462D4E89B001ADE2
:1030D000894690460FCE0FC596E80700D4F800B099
:1030E000284B85E807009B4545D003F580439B4569
:1030F00043D0254DAB450CBF02254FF0FF35DFF81F
:1031000090A022480AEB4517D7F8AC6520F00FF9DC
:10311000606820F00CF9617B207B0023042201F021
:103120006BFD0422617A207A002301F065FD012302
:10313000584601A98DF81230CDF80C90ADF81480E6
:103140001FF074FA0020627A237A2E3543EA024394
:103150000AEB451ACAF80430627B237B06F00406AA
:1031600043EA024346F01806C7F8C035C7F8AC6515
:1031700009B0BDE8F08F0025C1E70125BFE700BF1A
:1031800050DE03000080055000000650DCE3030021
:1031900000C00350F0B58BB020F039FBFFF798FA70
:1031A000FFF75AFC032000F001FB60B1334C3449B7
:1031B000206820F08BF91FF022F91FF021F9314926
:1031C000206820F083F92D4C2D4D20F02DFB1EF0B2
:1031D00085FE6846FFF7F4F9DDE9007638463146AA
:1031E000FFF76CFA032000F0E1FA58B12946206895
:1031F00020F06CF91FF003F91FF002F92249206852
:1032000020F064F9032000F0D1FA60B1294620686B
:1032100020F05CF91FF0F3F81FF0F2F8009A1B4958
:10322000206820F053F9032000F0C0FA60B129466D
:10323000206820F04BF91FF0E2F81FF0E1F8019A46
:103240001349206820F042F94FF47A7004F07EFEB2
:103250003B4610210F4A02A81DF072FC3346102194
:103260000D4A06A81DF06CFC02A8FFF729FC06A871
:10327000FFF738FC04F0DCF9A7E700BFA40E00203C
:103280006CDE030071DE030077DE030083DE0300E3
:103290008EDE030099DE0300A6DE030030B503686E
:1032A0007C4A23F47F4323F00703934289B040F024
:1032B000EE80082200211220774B0FF0A3F904467C
:1032C00010B3764D7649286820F000F975492868D2
:1032D00020F0FCF81FF093F81FF092F8724B734A3D
:1032E000009373495C23286820F0F0F87149234665
:1032F000714A286820F0EAF8204600F09DFA6F49EC
:10330000286820F0E3F8FEE70146032214206C4B06
:103310000FF078F9044610B3604D6149286820F039
:10332000D5F86049286820F0D1F81FF068F81FF040
:1033300067F85D4B5D4A00935D496A23286820F079
:10334000C5F85C4923465C4A286820F0BFF820464F
:1033500000F072FA5949286820F0B8F8FEE70146F3
:1033600005221620574B0FF04DF9054610B34B4C74
:103370004B49206820F0AAF84A49206820F0A6F8B6
:103380001FF03DF81FF03CF8474B484A009348496E
:103390007823206820F09AF846492B46464A206850
:1033A00020F094F8284600F047FA4449206820F0BD
:1033B0008DF8FEE70DF10F0104A80FF051F9044656
:1033C00010B3364D3649286820F080F83549286812
:1033D00020F07CF81FF013F81FF012F8324B334A3C
:1033E000009333498323286820F070F8314923463D
:1033F000314A286820F06AF8204600F01DFA2F496B
:10340000286820F063F8FEE7BDF8143001465BBA87
:10341000ADF818309DF8133008228DF81A30FF23CC
:103420008DF81B30FE238DF81C309DF812301820CB
:103430008DF81D30BDF810305BBAADF81E3006AB0C
:103440000FF0E0F8054610B3144C1549206820F041
:103450003DF81449206820F039F81EF0D0FF1EF026
:10346000CFFF114B114A009311499323206820F09C
:103470002DF810492B46104A206820F027F82846DE
:1034800000F0DAF90D49206820F020F8FEE709B0D5
:1034900030BD00BFA0000100B0DE0300A40E00207C
:1034A00081DE030088D60300EBDE0300B9DE0300F3
:1034B00096D60300A5D60300A2D60300BAD6030011
:1034C000E1DE0300E5DE030007B501A801F056FCCC
:1034D0009DF80530012B27D1214A936DDB0313D4CE
:1034E000536B23F4FF0323F4FE4343F4BC1343F470
:1034F000A0635363136B23F4704343F4404313639B
:10350000136B43F4E06313639DF8043063B94FF029
:1035100000531B68134B1B68134B1B68134B1B6832
:10352000134B1B68134B1B68134AD2F8803043F0CF
:103530000303C2F8803003F0E9F900F0CFFA1FF07E
:1035400078FF1FF0E8FE03F063FA00F0BDFA00F028
:1035500001FC00F0F3FC03B05DF804EB03F08CBF5A
:1035600000C00050004000200080002000C000206B
:10357000000001200040012000800050184B37B5AA
:1035800083422AD1174B1B783BB3C8B20FF028F8FF
:10359000054610B3144C154920681FF097FF1449D5
:1035A00020681FF093FF1EF02AFF1EF029FF114B29
:1035B000114A00931149852320681FF087FF1049A5
:1035C0002B46104A20681FF081FF284600F034F98E
:1035D0000D4920681FF07AFFFEE703B030BD00BF41
:1035E0006C0E0020C62D0020A40E002081DE0300FA
:1035F00088D60300ABE1030044E1030096D6030044
:10360000A5D60300A2D60300BAD6030030B5002524
:103610000368584A23F47F4323F0070385B093429D
:1036200004460295ADF80C507ED002F580229342FC
:103630000ED0A2F18272934240F09A804E4B1B78DA
:10364000002B00F0958005B0BDE8304020F0F7B8C1
:10365000B0F805301B2B40F08B80FF2304A91A46DD
:1036600011E903001EF0C4FE012814BF41F2FC154D
:10367000414B05F0FC0208BF18701B2120790EF0A9
:10368000D7FF054610B33D4C3D4920681FF01EFF93
:103690003C4920681FF01AFF1EF0B1FE1EF0B0FE7C
:1036A000394B3A4A00933A49592320681FF00EFFDC
:1036B00038492B46384A20681FF008FF284600F09A
:1036C000BBF8364920681FF001FFFEE7344900903F
:1036D0002379344A0968344800F00AF9054600287D
:1036E00046D0264C264920681FF0F0FE2549206868
:1036F0001FF0ECFE1EF083FE1EF082FE224B234ADA
:1037000000932349622320681FF0E0FE21492B46E5
:10371000214A20681FF0DAFE284600F08DF81F4984
:1037200020681FF0D3FEFEE7B0F80530B7EE047A4C
:1037300007EE903AF8EE677AB0F8073067EE877ACE
:10374000013307EE103AB8EEC77A67EE877AB1EE2A
:10375000047A67EE877AFAFE677AFCEEE77A17EE6C
:10376000903AB3F57A7F38BF4FF47A730C4A1360FE
:1037700005B030BDA0000602C62D0020A40E00201A
:1037800081DE030088D60300BAE1030044E10300B0
:1037900096D60300A5D60300A2D60300BAD603002E
:1037A000703000207D3501006C0E00200B4B02466E
:1037B0001B7883B10A4B1B78834234BF0020012061
:1037C000084B1B7833B1084B1B78134113F0010FE2
:1037D00008BF002070470120F2E700BF81320020BF
:1037E00080320020C72D00207F320020012208B542
:1037F000074B1A700022074B1A700422064B1A70EE
:103800001F22064B1A7003F0EDF8054B186008BD37
:1038100081320020C72D0020803200207F3200201E
:10382000A40E0020024B034918681FF04FBE00BFD2
:10383000A40E0020DAE1030070B50C4C0C490646DA
:1038400020681FF043FE03F0CDF80546206803F022
:10385000BDF83046FFF7E6FF284603F0B7F82068CA
:103860000449BDE870401FF031BE00BFA40E002027
:10387000DCE10300DEE1030038B505461EF02FFE53
:1038800000230B4A14685CB1AC4206D1A96A6BB143
:1038900099621EF02AFE012007E02346A46AF2E79F
:1038A000002DF3D01EF021FE204638BD1160F0E758
:1038B000A80E002010B50446B0B104F081FA2046ED
:1038C000FFF7DAFF10B194F82C300BB9002010BDCF
:1038D000064C2368002BF9D01EF001FE2368013B43
:1038E00023601EF002FEF1E72220F0E7AC0E00207C
:1038F0002DE9F04385B00546914698460E469DF861
:10390000307009B9002F5CD12846FFF7D3FF044679
:10391000002836D185F82C00686304F08DFB8642C0
:1039200033D904F0FBFA2146844640F2E7304FF4E5
:103930007A720023E6FB0C011CF008FE4FF0FF3208
:1039400000231CF003FE2B46E88611462846CDE9ED
:1039500000441D4A1FF0FBFE044690B9C5E90898D3
:1039600085F82D702E631EF0BAFD184A136833B324
:103970001A469B6A002BFBD195620023AB621EF0B6
:10398000B4FD204605B0BDE8F08347B12B46314673
:103990002846CDE900440C4A04F012FBDCE730462F
:1039A00003A904F0EFFA04460028EAD12B46284682
:1039B000CDE90077044A03991FF0A5FECCE7156016
:1039C000DBE72124DDE700BFD1390100A80E00208C
:1039D00091F82C3013B50C4683B98B8ECA8E934266
:1039E0000ED243B9CDE9003320460B46124A4FF0C0
:1039F000FF311FF06CFEA38E0133A38602B010BD11
:103A000052B191F82D3093B101230093D1E90823ED
:103A10002046096BFFF76CFF012384F82C30074B1D
:103A20001A6801321EBF1A6801321A60E6E70846BA
:103A300004F0C6F9F0E700BFD1390100AC0E002058
:103A40002DE9F041154E336833B34FF00008144FA1
:103A50001EF045FD05463C6824B92846BDE8F04106
:103A60001EF043BD94F82C30A3B1336884F82C8049
:103A700013B13368013B336094F82D3013B92046FD
:103A8000FFF7FAFE28461EF030FDD4E90831204643
:103A90009847DDE7A46ADFE7BDE8F081AC0E0020BF
:103AA000A80E0020034B1B68002B14BF042001202C
:103AB000704700BFAC0E0020024B1868B0FA80F0CF
:103AC00040097047AC0E002008B503481FF02FFCDA
:103AD000BDE808401EF024BCDCE3030001481FF0F1
:103AE00026BC00BFDCE3030007B508201EF007FD7D
:103AF00002238DF80030054B684601931EF097FCB9
:103B0000082003B05DF804EB1EF004BD006A181035
:103B10000348044A0449121A92101EF0C5BC00BFA3
:103B200034210100D4220100C02E002008B500F08D
:103B30002FF8FFF7EDFF124B12498B4212D30020F2
:103B4000114B12498B4218D3FEF7AEFC186850F89F
:103B50002240586840F82240013298688242F5D3EA
:103B60000C33EAE70022F8E71C6844F8220001322F
:103B70005C68A242F8D30833E4E70022F8E700BF0C
:103B8000C0110400CC110400CC110400CC110400BD
:103B9000124B134A70B59A60D3F88820114D42F445
:103BA0007002C3F888206FF0010205F50054226608
:103BB00041F2FF7262660222C3F8D020BFF34F8F3A
:103BC000BFF36F8F4FF44036032002F0DDFE032079
:103BD000E66002F0CBFE2E6170BD00BF00ED00E09C
:103BE0000020010000800044014B1868704700BFAE
:103BF00078300020014B1860704700BF78300020FB
:103C0000084B1B6F03F00703022B04D0032B05D0D6
:103C1000012B05D0FEE7044B18687047034BFBE708
:103C2000034870470080005078300020803000202A
:103C3000002D310108B5FFF7E3FF054B1B6FC3F300
:103C400001330133B0FBF3F0024B186008BD00BF35
:103C500000800050743000200048704700B4C40455
:103C6000014B1868704700BF80300020054B18607A
:103C7000054B1B6F03F00703032B01D1FFF7DABFDE
:103C8000704700BF8030002000800050004870471F
:103C9000002D3101174B9868C0F304400C280AD856
:103CA000DFE800F00B0909090909072119091B1DA3
:103CB0001F0011487047002070479B6803F0407355
:103CC000B3F1807F11D0B3F1007F10D00B4A002BED
:103CD00008BF104670470A4870470A4870470A48AC
:103CE00070470A4870470A4870470A4870470A48B0
:103CF000704700BF0040015A405DC60000093D000A
:103D0000C0EA210180BA8C010048E801005A620231
:103D10000024F40080841E0040420F00014B18680C
:103D2000704700BF7C30002000239B6AB3F5903FB2
:103D300003D21968064A914203D0002303708360BE
:103D40007047012202709A689B694260F7E700BFE2
:103D500007B0CD5E00239B6A10B5B3F5903F11D23A
:103D600019680A4A91420DD1094C227812F0FD0FD0
:103D700001D0002010BDDB6998470028FAD101234B
:103D80002370F6E74FF48170F4E700BF07B0CD5E13
:103D9000C82D00204FF00053014A1A6002F0D4BD34
:103DA00002020FF0034B5868C0F30800003818BF38
:103DB0000120704700ED00E013B50024294801946C
:103DC0001FF0B5FA012304220321204600F014FF5E
:103DD00020461EF013FC0122234B0520C3F8442487
:103DE00001A91FF09AFA002839D1204BD3F8F0200E
:103DF00042F00102C3F8F020D3F8FC2042F08072B8
:103E0000C3F8FC201A4AA3F55D431A60019B194AC6
:103E100003F5D52303F2FC43B3FBF2F3164A013B4F
:103E200013610223C2F8F0304FF48073C2F80433F8
:103E30004FF06043114AC3F8B02F114AC3F8802EE7
:103E4000D3F8002E42F48072C3F8002EFF2283F8CC
:103E50002020D3F8002E22F48072C3F8002E02B086
:103E600010BD00BFDCE3030000D0035000ED00E014
:103E7000FF030040F8590D00000004E055CEACC52A
:103E8000090001004FF06043D3F8802E30B5D2070F
:103E900015D501240B4D8440D5F8FC2042F08072EA
:103EA000C5F8FC20D3F8002E2243C3F8002E53F8A7
:103EB0002020002AF0D003F82010002030BD11206F
:103EC000FCE700BF00ED00E0184B2DE9F0411F6D4D
:103ED0005B6D1F4000D5FEE701260025144CDFF87E
:103EE0005880374218D02368C8F85060A3B1A16841
:103EF000284601316268A1609847637B012B0BD192
:103F000050B90C4B03EB45131A7B60F341021A7353
:103F10001A7F60F341021A770135082D4FEA4606F1
:103F200004F11004DDD1BDE8F08100BF00000450B1
:103F3000B00F0020B00E002000200450024B196882
:103F4000024B186815F0B6B984300020A430002068
:103F500070B59400224605460E4629F091FB431C9D
:103F60000AD058B922463146284628F092FB00284C
:103F7000034808BF002070BD0248FCE70248FAE78A
:103F800010E000F021E000F024E000F010B504465D
:103F900029F072FB431C10D088B900F017FF2346AC
:103FA00020F003002044984201D1002010BD53F8B6
:103FB000042B0132F7D00348F8E70348F6E703483B
:103FC000F4E700BF0EE000F021E000F024E000F094
:103FD00008B51EF07DFA014B186008BD20170020BF
:103FE000014B18681EF078BA2017002041F6713393
:103FF000124A30B5D469124DD3639368A84204F4D1
:10400000803423F4401306D893600E4AD2F8183255
:1040100023F002030AE043F4801393600A4B9842B2
:10402000F3D9084AD2F8183243F00203C2F8183222
:1040300014B10022014BDA6330BD00BF0000035011
:10404000005A620200C0075080F0FA022E4B9842DC
:104050004AD022D82D4B984240D014D82C4B9842AD
:1040600039D00AD82B4B984232D02B4B98422FD0C4
:104070002A4B98422CD000207047294B9842FAD105
:10408000284B186F7047284B98422AD0274B9842EC
:10409000F1D1244BD3F880007047254B98422BD0A8
:1040A00009D8244B984223D0234B9842E3D11D4B8F
:1040B000D3F88C007047214B984221D003F574034C
:1040C00003F510539842D6D1164BD3F89800704799
:1040D000144B986D7047134B586E7047114B586FC7
:1040E0007047104B986F70470E4BD3F884007047A1
:1040F0000C4BD3F8880070470A4BD3F890007047F8
:10410000084BD3F8940070470048E8010024F400FD
:10411000C0CF6A0080841E0000093D0040420F00AD
:10412000405DC6000080E00FC0EA210180BA8C012A
:10413000007E560380D54302006CDC020090D00361
:1041400038B5134B0546D3F820010C4600F00700A4
:1041500004281AD8DFE800F003090D111500012327
:1041600005B1286004B1236038BDFFF73DFD04238D
:10417000F6E7FFF775FD0323F2E7FFF78BFD052355
:10418000EEE7FFF783FD0223EAE700231846E7E79F
:104190000080005037B50C460021114B0191D3F837
:1041A0008031054603F00303022B0ED0032B11D000
:1041B000012B03D101A8FFF7C3FF0D210DB1019B16
:1041C0002B6004B1216003B030BDFFF763FD052112
:1041D0000190F3E7FFF75AFD02210190EEE700BFDF
:1041E0000080005038B5104B0546D3F840310C46DE
:1041F00003F00303022B0BD0032B0DD0012B0FD1A7
:104200001EF060F9082305B1286004B1236038BDB1
:10421000FFF784FD0723F6E71EF057F90923F2E7BD
:1042200001230020EFE700BF0080005038B5104B9D
:104230000546D3F860310C4603F00303022B0BD084
:10424000032B0DD0012B0FD11EF03CF9082305B133
:10425000286004B1236038BDFFF760FD0723F6E74F
:104260001EF033F90923F2E701230020EFE700BF36
:104270000080005038B5144B0546D3F800020C46B8
:1042800000F0070004281BD8DFE800F003090D1137
:104290001500012305B1286004B1236038BD1EF06C
:1042A00011F90823F6E7FFF739FD0723F2E71EF0BF
:1042B0000CF90923EEE7FFF7BDFC0C23800AE9E7C0
:1042C00000231846E6E700BF0080005038B5144BC5
:1042D0000546D3F808020C4600F0070004281BD856
:1042E000DFE800F003090D111500012305B1286076
:1042F00004B1236038BD1EF0E5F80823F6E7FFF7A8
:104300000DFD0723F2E71EF0E0F80923EEE7FFF7C3
:1043100091FC0C23800AE9E700231846E6E700BF7A
:104320000080005038B5104B0546D3F840320C469B
:1043300003F00303022B0BD0032B0DD0012B0FD165
:104340001EF0C0F8082305B1286004B1236038BD11
:10435000FFF7E4FC0723F6E71EF0B7F80923F2E7BE
:1043600000231846EFE700BF0080005038B5104B1F
:104370000546D3F800310C4603F00303022B0BD0A3
:10438000032B0DD0012B0FD1FFF76AFC032305B1DE
:10439000286004B1236038BDFFF7C0FC0723F6E7AF
:1043A0001EF08EF80623F2E701230020EFE700BF9E
:1043B0000080005038B50C4605461EF089F8054BC4
:1043C0009A6A54402C4054409C62BDE838401EF02C
:1043D00083B800BF00C00050032814D005D80128BE
:1043E00005D0022809D0002005E00F28FBD1084B9A
:1043F000186FC0F3013001307047054BD3F89000BF
:10440000C0F30460F7E7024B186FC0F38020F2E7B7
:10441000008000501FB500230193252817D8DFE83E
:1044200000F0131A1D272C363B51565B60656A78E5
:10443000161A401616561A272C27361A5127783B7B
:104440003B3B3B2727275B60FFF7DAFB0190019896
:1044500005B05DF804FBFFF7EDFBF7E7FFF7D0FBD6
:1044600002460220FFF7B8FFB2FBF0F20192EEE73E
:10447000FFF7E0FB02460320F4E7FFF7DBFB024611
:104480000320FFF7A9FFB2FBF0F25208EEE700218C
:1044900001A8FFF77FFEDAE7002101A8FFF750FE31
:1044A000D5E702934FF0E0231B695B0705D5FFF7C3
:1044B000C1FB0290029B0193C9E703A902A8FFF781
:1044C00091FEF7E7002101A8FFF78CFEBFE700216E
:1044D00001A8FFF7ABFEBAE7002101A8FFF7CAFE6B
:1044E000B5E7002101A8FFF7F1FEB0E7002101A820
:1044F000FFF73CFFABE7094BD3F8803003F0030331
:10450000022BA8D0032B01D000209FE7FFF7C2FBAE
:104510009CE7002101A8FFF705FF98E70080005005
:1045200008B50120FFF776FFBDE80840034988423F
:1045300094BF01210221032000F002B880F0FA02AA
:10454000032810B50C4627D004D8012804D002282F
:1045500017D010BD0F28FCD11EF01DF81EF023F857
:10456000124A013C136F23F4405343EA04331367A8
:10457000FFF760FB0021FFF739FDBDE81040FFF7B2
:10458000CFBF0A4A4C1ED2F8903023F0F85343EACA
:104590000463C2F89030DCE7044A4C1E136F23F426
:1045A000806343EA84231367D3E700BF0080005091
:1045B0001FB500230193252821D8DFE800F0132040
:1045C0002020202A2F454A4F54595E712020342044
:1045D000204A202020202A204520712F2F2F2F20F5
:1045E00020204F54314B1B6F03F00703013B032B7B
:1045F00005D8DFE803F00C02080A042301930198B0
:1046000005B05DF804FB0323F8E70623F6E7022371
:10461000F4E7002001A9FFF7BDFDF0E7002001A9A4
:10462000FFF78EFDEBE702934FF0E0231B695B077A
:1046300005D5FFF7FFFA0B230393039BDEE703A9DE
:1046400002A8FFF7CFFDF8E7002001A9FFF7CAFD98
:10465000D5E7002001A9FFF7E9FDD0E7002001A977
:10466000FFF708FECBE7002001A9FFF72FFEC6E702
:10467000002001A9FFF77AFEC1E70C4BD3F8803088
:1046800003F00303022B03D0032B05D00023B5E76F
:10469000FFF7D0FA0B23B1E7FFF7FCFA0523ADE7EC
:1046A000002001A9FFF73EFEA9E700BF00800050EF
:1046B000024A536A23F001035362704700C0075057
:1046C00008B5FFF775FF07280ABF024B4FF6FF70CA
:1046D000188808BD6C32002008B5FFF769FF032871
:1046E0000ABF024B4FF6FF70188808BD6A320020DF
:1046F00038B50546FFF7AAFC204B04465A68012A44
:1047000004D11F494A609A699207FCD10020FFF743
:104710004FFF042803D11DF03EFF1DF044FF194A4E
:1047200024F0407395421FD0174A95421FD0174A74
:10473000D16811F0060FFBD19068936091684B40EF
:1047400013F4F81F16D12846FFF754FA0020FFF79C
:104750002FFF042810D1FFF76DFA0021FFF746FC68
:10476000BDE83840FFF7DCBE43F00073DFE743F0FD
:104770008073DCE79060E9E738BD00BF00C00150FE
:1047800000E0015040420F0080841E0000000150F4
:10479000F8B504460020FFF70BFF032800F08180E6
:1047A00045F60E0302213F4AC2F880303E4B996223
:1047B000012103F580539962936DD903FCD4D4E9A8
:1047C00000131B0543EA0163E17B94F820500B437F
:1047D000217BE77E43EA0143617B6D0143EA0133BC
:1047E000A17B43EA811313619169D4E904031B0699
:1047F00043EA806301F000410B43A17E94F823005B
:104800000B43217E43EA0143617E43EA0123936126
:10481000136AE66923F00D0394F8221043EA870334
:1048200066BB1362966A94F8213045EA031326F0BA
:1048300033052B4343F0010393621C4D194A936DDA
:1048400035EA0303FBD10225174B9D62936D5B0094
:10485000FCD41369A56823F4700343EA055313617C
:104860004FF00042104B9A6119B9022203F58053B0
:104870009A6278B901220E4B9A620BE0334343F0FF
:1048800008031362936A23F0330303432B4343EA81
:104890004103936294F824301BB1024B054AC3F8DC
:1048A0008020F8BD00C0005000D00050030001403F
:1048B00000E00050F1A7FFFF70B5184CFF28A66A72
:1048C0002AD8A36D13F4803F18BF0122144B18BFE0
:1048D0009A6202229A62A56D15F08045FBD1114AB9
:1048E000A36992F9002023F47F03024423F47F4359
:1048F00082F3080243EA002343EA0243A3613146FC
:104900000220FFF757FDA36DDB0303D531460120DD
:10491000FFF750FD284670BD2125FBE700C0005081
:1049200000D00050C92D0020014B93F900007047C2
:10493000C92D002001231248124A816A9362836DB7
:1049400003F00303032BFAD1022393620C4A936D05
:104950005800FCD40C48936D30EA0303FBD10122CC
:10496000084B1A65A3F580539A6D9207FCD49A6D93
:104970009007FCD59A6D9207FCD50320FFF71ABD6E
:1049800000C0005000D0005003000100F0B5D0E995
:1049900001434FF4D1560227164A417805785662F2
:1049A000154E4F2977604FF0010728BF4F2106F5BC
:1049B000805677601669F603FCD441EA05215161FF
:1049C0001B01417B43EA04230B43017B43EA410380
:1049D0009360C37B817B1B0143EA4113417C0B4302
:1049E000017C43EA41035360837C13B16FF4D153DC
:1049F0005362F0BD0000025000100250014B1880BD
:104A0000704700BF6C320020014B1880704700BF18
:104A10006A320020284B984242D01AD8A3F5B70337
:104A2000A3F55863984237D00CD8244B984225D030
:104A3000234B98422AD0234B984217D00023224A76
:104A400093607047214B9842F8D1214BD3F8BC308A
:104A50001FE0204B984227D01F4B984228D01F4B75
:104A60009842EBD11A4BD3F8C83012E0184BD3F868
:104A7000A03023F0407343F00073E0E7144BD3F809
:104A8000A03023F0407343F08073D8E7104BD3F885
:104A9000A03023F04073D2E70D4BD3F8B830F8E7DD
:104AA0000B4BD3F8C030F4E7094BD3F8CC30F0E728
:104AB000074BD3F8D030ECE7C0EA210180841E0018
:104AC00000093D0040420F000040015A0024F4005C
:104AD0000080E00F0048E801005A620280BA8C01B1
:104AE0000C4A10B51369044643F00403136102F045
:104AF0004BFF1DF070FD084B084AC3F8202430BF5F
:104B00001DF06AFD02F062FF1CB9BDE81040FFF71E
:104B100091B810BD00ED00E000E003500000FFFF81
:104B20000A4A10B51369044643F004031361084BA5
:104B3000084AC3F8202402F027FF30BF02F046FFE6
:104B40001CB9BDE81040FFF775B810BD00ED00E0DE
:104B500000E003500000FFFF034A0179D36E23F009
:104B600030030B43D366704700400050072A2DE9FD
:104B7000F0410D46144698460FD803269700BE40D4
:104B800000FA07F2314615481DF029FD05F0030231
:104B900031461348BA401DF022FD124B12499DF8D0
:104BA0001800B8F1000F18BF1946012303FA04F4E6
:104BB0000C600E4B0E49002818BF0B461C600D4BB5
:104BC0009DF81C00C3F82044103103F22443002850
:104BD00018BF0B461C60BDE8F08100BF00C4035045
:104BE00008C4035010D4035010E4035014E40350DD
:104BF00014D4035000E00350F8B504460D461F4698
:104C000016464AB101238B403021184A01FB00228D
:104C1000F7B141F21001535004EB4403072D4FF05C
:104C20000F014FEA031316D8A80006FA00F28140DC
:104C30000F4818441DF0D3FC4EB9012330210B4A14
:104C4000AB4001FB042277B141F210015350F8BD93
:104C500042F21001DFE7A5F10800800006FA00F239
:104C600081400448E5E742F21001EFE700C003503D
:104C700004C003500CC0035041F67132034BDA6399
:104C8000012203F50053DA60704700BF00000350B3
:104C900041F671320121044BDA6303F50052D16011
:104CA0000022DA63704700BF00000350CB784A78D7
:104CB00010B55B010C7843EA82030A79234343EA87
:104CC00002130C22424302F1B0421363012C02BFD3
:104CD0008A78024B43F8202010BD00BFD0800350DB
:104CE00008B54FF0B0435A686AB958B15B680BB168
:104CF0001DF085FC01210D4B59601DF080FC4FF02B
:104D0000B043D96008BD5B680BB11DF078FC00288A
:104D1000F0D11DF074FC4FF0B0430222DA601DF0B8
:104D20006EFC0122024B5A60ECE700BF00100058F5
:104D3000002000584FF0B0414B6810B50BB11DF08A
:104D40005EFC01220B4BC4785A608378934043EA9F
:104D5000840344782343047943EA0413447943EAFF
:104D6000C4038B60044B5A600378C3F10203CB6029
:104D700010BD00BF0020005800100058054B5B69B3
:104D8000C3F38512827003F03F021B0B4270037065
:104D9000704700BF00C0075040F6B732064B5B6853
:104DA0009BB293429FBF4FF47A72B3FBF2F3034A74
:104DB000D05C88BF002070470080E00F55E2030000
:104DC000014B986CD96C70470080E00F0120034BB9
:104DD0009B680A3303F01F03984070470080E00F80
:104DE0000D4B984208D1A3F50033C3F88411C36D6D
:104DF00043F08003C3657047084B984204D1A3F584
:104E00001033C3F89411F2E7054B984204BFA3F5A1
:104E10002033C3F8A411EAE70080055000C0055014
:104E200000000650012200F580535A6040F6AA6344
:104E300041F20502436100230D498360C365C260EE
:104E400000F500520361C361C3649164094983653D
:104E5000884203D103650023436506E00649884282
:104E6000F8D001F580418842F4D0012353607047A7
:104E7000FFFF01000080055000C0055038B5044612
:104E8000054D26F04DFF0FCC0FC594E80F0085E8C7
:104E90000F00002038BD00BF2417002047F6FF7325
:104EA0009A42F0B572D0022972D83A4B5B5C022B61
:104EB0006ED8394DDF0005EBC304A17815F8333007
:104EC000012938BF0121012B13D10025E078401AB8
:104ED000A84202D80844C0B2F0BD431B6668A0EBEC
:104EE000530336F913609642D4BF1D4603F1FF30D9
:104EF000EEE760680028EFD0B0F90040944204DB90
:104F0000B0F902409442B8BF144683883D44FF2B59
:104F100019BFC8224FF0280CB0F90620B0F908C01C
:104F2000A2EB04030CBF0126002693FBFCF33344E1
:104F30006E781BB29E4201DD002B01DA731E1BB29C
:104F40004FF47A7C01339BB2071D5D1E2DB24FEAF0
:104F5000C50E00EBC505EA88AD689E4214FB0252FF
:104F600022EAE27202F15C02B2FBFCF204DD37F8E5
:104F7000335001339542E8D200EB0E0398889042FB
:104F800028BF1046884238BF0846A4E7FF20A3E7A1
:104F90000020A1E758E20300241700200229F0B501
:104FA00060D8314B595C02295CD8304B13F8310082
:104FB000012816D103EBC1039C78D878012C214637
:104FC00038BF0121904294BFC1EB0001C1EB020147
:104FD000001BCAB28242C8BF00225B6833F91200CC
:104FE000F0BD002A3CD003EBC1035968002939D039
:104FF0009878904202D3B1F90200F1E7DC78B1F978
:1050000000009442ECD95C788B88013CA3F1FF0648
:10501000734201F10405E4B2734101F10C07DEB201
:10502000B44216D805EBC3034FF47A756A43B3F95B
:1050300002405B68D21A04EBD47302EB630292FB6A
:10504000F4F29042CCDBB1F902009042C8DC10B21D
:10505000C6E737F833C05E1C9445E3D33346DEE73A
:105060000348BDE70348BBE758E2030024170020CC
:105070000CFEFFFF0080FFFF08B50448FFF7FEFEAF
:10508000BDE80840012026F04FBE00BF5CE20300EF
:10509000004870476E3200207FB50222084B094954
:1050A000CDE901234FF00073CDE90313052301A9D6
:1050B0004FF0FF30059326F067FE07B05DF804FB64
:1050C000006A1800000204002DE9F0418CB0884607
:1050D000DDE912761D460446002847D0002945D058
:1050E000002F43D0002E41D013F00F033ED12048B3
:1050F0002049A360002A08BF0146E361C4E9001308
:10510000404609A91DF0ECFB68BB204609991DF03B
:105110002BFD294620461DF027FD694640461DF01F
:105120008DFC00BB694620461DF00AFD404603A9E0
:105130001DF08FFCB8B9204603A91DF001FD0697AC
:105140000127204645F0005506A9079708951DF050
:10515000F7FC204609A909960A970B951DF0FAFC61
:1051600020461DF0EBFA0CB0BDE8F0812120FAE7F3
:1051700000010004000101042DE9F0418CB08846D3
:1051800016461D460446129F00284BD0002949D0E0
:10519000002A47D0002F45D00B68103B102B41D878
:1051A000214A22FA03F3D9073CD500231F4A836022
:1051B000C0E90023C36109A940461DF091FB70BB03
:1051C000204609991DF0D0FC294620461DF0CCFC54
:1051D000694640461DF032FC08BB694620461DF07A
:1051E000AFFC404603A91DF034FCC0B9204603A91A
:1051F0001DF0A6FC06960126204606A945F000559E
:10520000079608951DF09CFC094B204609A90997B3
:105210000A960B931DF09EFC20461DF08FFA0CB0F1
:10522000BDE8F0812120FAE701010100000004043B
:1052300010000020F0B50C4617461E46054695B0F6
:10524000002874D0002972D0002A70D0002B6ED0B4
:10525000036B0F2B5BD80023364A3846C4E9002382
:10526000A360E36111A91DF03BFB00285BD1204640
:1052700011991DF079FC296B20460F2984BF01F09C
:105280000F0110311DF070FC384602A91DF0D6FB4D
:10529000002848D1204602A91DF052FC384605A935
:1052A0001DF0D7FB00283ED1204605A91DF048FC83
:1052B0000122214B089509920A932B6B05F11000EE
:1052C00003F00F0141F000510B900F2B0C920D9148
:1052D0000E900F9243F00052109226D90A9B08A913
:1052E00023F0005320460A931DF02AFC0BA9204608
:1052F0001DF026FC0123119612930F4B204611A995
:1053000013931DF027FC20461DF018FA0BE000F166
:105310002003019000930122102339462046FFF715
:10532000D3FE002897D015B0F0BD0EA9DFE72120ED
:10533000F9E700BF00000404100000202DE9F04F41
:105340009BB00C4690461F460546DDF8909000281D
:1053500000F0B280002900F0AF80002A00F0AC809D
:10536000002B00F0A980026B02EB09031B09B3EBD1
:10537000121F02F00F0600F0978000234F4A8B6047
:10538000C1E90023CB61404617A91DF0A9FA0346E5
:10539000002840F0858006EB090B204617992BF07A
:1053A0000F0A1DF0E1FB514620461DF0DDFB404693
:1053B00002A91DF043FB0346002871D1204602A933
:1053C0001DF0BEFB404605A91DF043FB0346002827
:1053D00066D14FF00108019005A920461DF0B0FBF1
:1053E000374A204608A90895CDF824800A921DF076
:1053F000A7FB46F00051AAEB060605F1100346F0A4
:1054000000560B93CDF830800D910E97CDF83C806F
:1054100010960D99204621F000510D910BA9009393
:105420001DF08EFB20460EA91DF08AFB019B244A2D
:105430001193AAF1100343F00053CDF84880139361
:1054400005F120031493CDF854801692139B204647
:1054500043F080431393139B11A923F0005313933C
:105460001DF078FB204614A91DF074FB144A17A9FF
:1054700020461795CDF8608019921DF06BFB2046F1
:105480001DF05CF9AAEB0B0149440190ABEB0A0259
:105490000098394427F045F9019B2A6B4A442A6356
:1054A00018461BB0BDE8F08F10304A4639463044EC
:1054B00027F037F90023F0E72123F1E70302000486
:1054C000100000202DE9FF474FF000080E46174658
:1054D0000446CDF80080002859D022B9002528467E
:1054E00004B0BDE8F087002951D032F0030902F082
:1054F000030A1FD04FF0E063C0E900380123019197
:10550000C0F808800293C0F81C8049F0005301A93C
:1055100003931DF01FFB494620461DF025FB204646
:105520001DF00CF9054628B14A464146304627F0A1
:10553000DAF8D4E7BAF1000FD0D04FF000084FF0FE
:10554000E063C4E900380123CDF804D00293114B85
:10555000204601A9C4F80880C4F81C8003931DF0FC
:10556000F9FA042120461DF0FFFA20461DF0E6F866
:10557000054608B13A46D8E7009A4E44EB0001359B
:1055800022FA03F3AA4506F8013BF7D1A6E7212545
:10559000A5E700BF04000020F0B50F4616461D46E3
:1055A000044693B010B9212013B0F0BD0029FAD001
:1055B000002AF8D0002BF6D0002331461A46384690
:1055C0001DF033F90028EFD1304602A91DF0D8F8BC
:1055D0000028E9D138683449029A88426B695ED163
:1055E0009342E0D32B68002BDDD14FF06062384648
:1055F000C4E90023A360E36101A91DF071F900284B
:10560000D2D10199204621F4F06101911DF0ACFA4C
:10561000694628461DF064F90028C5D12046009946
:105620001DF0A2FA384609A91DF008FA0028BBD1DE
:10563000204609A91DF084FA38460CA91DF009FA84
:105640000028B1D120460CA91DF07AFAEB684BB1C5
:10565000284606A91DF0F2F90028A5D1204606A982
:105660001DF06EFA304603A91DF0F3F900289BD116
:10567000204603A91DF064FA28460FA91DF0E9F998
:10568000002891D120460FA91DF064FA0325204679
:105690001DF054F8012887D1013DF8D184E7B3EB20
:1056A000420F9FD27FE700BF200000B070B50E46CA
:1056B000154604468AB000285CD000295AD0002A3A
:1056C00058D0012329461A4630461DF0AEF800286E
:1056D0004ED1B36813F4C04F4CD0AB6803F4C04351
:1056E000B3F5005F46D1254BA060C4E90030E0610E
:1056F00007A930461DF0F4F8002839D12046079953
:105700001DF032FA012302934FF00053204601A905
:1057100003931DF015FA304604A91DF09AF938BB21
:10572000204604A91DF00CFAEB681BBBAB6803F420
:10573000C043B3F5005F1DD1694628461DF043F80C
:10574000B0B9009B6A699A4216D32A6943F00053A4
:1057500007920122204607A90892032509931DF00C
:10576000F9F920461CF0EAFF012801D1013DF8D1EA
:105770000AB070BD2120FBE71D20F9E700000102FF
:105780001FB5044698B191B100230A4A8360C0E96D
:105790000023C361012301910293074B01A90393E5
:1057A0001DF0D8F920461CF0C9FF04B010BD21201F
:1057B000FBE700BF000008430400002006289ABF52
:1057C000014B185C0020704748E3030030B5154BCF
:1057D00087B00293144B0390049346F611030D46D1
:1057E000059300F077F91428044616D168461DF099
:1057F00071FA4FF0A843032202A95A6319601D6190
:105800009A63DA6B9207FCD1142C02D168461DF022
:105810006FFA00F08FF9044601E00028E9D0204635
:1058200007B030BD44170020040000202DE9F04FE0
:10583000B1B005468C469E46E8466F4EDDF8EC90CA
:10584000409C06F1100A474630687168083603C765
:105850005645B846F7D13E9B03EB0208C8F1000A53
:105860000AF00F0AB9F1000F00F09D80C9F100079E
:1058700007F00F070121DDF8FCB044F00050C4F13F
:105880001006CDF810B005910690300200F4F850E3
:1058900040F021000790B9F1000F40F08680CDF86C
:1058A00020D047F00050002D00F084800991212184
:1058B0000A9041EA07210B9142F00050CDF830C028
:1058C0003D9B08A94FEA0A2C0D910E904CF0410027
:1058D0000F901093002A75D13E9B119143F0005315
:1058E00012933C9B1390149310AB1593434B444A73
:1058F000169340F611031793424B0021002D08BF69
:105900001346189314AB19933F4B10221A9311238B
:105910001B931CAB184626F0E6FE01221D920022C6
:1059200046F0804603461E96239205B9EB46102C9E
:10593000CDF880B024AE4BD1012322460021304661
:105940002193229426F0CFFE20AB002125938F4295
:1059500018BF334647F0804226923A9A2CA82892E4
:105960002993B2FA82F35B0949EA837310222B91DF
:105970002A9326F0B8FEB9F1000F00D028AED0442B
:1059800048F080432CA918A82D962E93FFF71EFFF0
:1059900030B92DB90346A34225D1002818BF2C20C9
:1059A00031B0BDE8F08F102764E7CDF820E049F072
:1059B000005078E7002C3FF479AF04A90991012148
:1059C0000A9076E73E9B0CAA11924120129388E739
:1059D0001022002130462193229426F084FE002CD0
:1059E000B2D10123B1E703F1C0026A4412F8C02C1E
:1059F00001331043CFE700BF4FE303001000002046
:105A000064E3030068E3030004000020F0B5C0294C
:105A10009FB0DDE9244557D0B1F5807F04D08029BF
:105A200048D029201FB0F0BD01265CB140F23447B8
:105A3000029410240396049421240197059406955A
:105A400002AC0AE040F21447029410240396049436
:105A5000212405940124019706950794012510241B
:105A6000089409950A9221220B950C940D92174ADD
:105A70000AAD0E92164A0F95109242F6110211923B
:105A8000129313951494159201AA1692D3B112ABE6
:105A90001793042318931123199316AB1A901B9391
:105AA00040F61103C9081C911AA806A91D93FFF717
:105AB0008DFEB7E7012614B94FF48267C4E74FF4AF
:105AC0008667B5E70EABE3E70F20ABE760E30300C3
:105AD00010000010144A38B5D2F8803243F00103A8
:105AE000C2F88032114B5B68C3F3080343B14FF037
:105AF000A842D36B13F0430FFBD11424204638BDCA
:105B00004FF0A843DC6B14F04304FBD1084D2B6825
:105B10001BB90421284602F069FE2B68013343F0CB
:105B200000432B60EAE700BF0080005000ED00E07A
:105B300044170020014B00205B68704700ED00E037
:105B4000012300F01F02A0F506200949A0F55060CE
:105B50004009934051F820201A4341F8202005497C
:105B600051F8202022EA030241F82020704700BFAC
:105B70005C170020481700200121A0F506230E4ADB
:105B8000A3F550635B0900F01F00814052F8230029
:105B9000014342F823100949D1E9003003448868E1
:105BA0000344C868096903445B1802BFC2E90033B3
:105BB000C2E9023313617047481700205C170020C8
:105BC0002DE9F04FA9B003921D4604460822339EEA
:105BD000CDE90401414021FA02F34B40980702F15C
:105BE000080218BF9B00202A1C44F4D18123B4FB77
:105BF000F3F303EBC313E41A734B04F506241B7889
:105C000004F55064002B3ED1FEF798F9074620B109
:105C10006FF0910029B0BDE8F08F0146402208A83E
:105C200026F061FD4022394618A826F05CFDDFF819
:105C3000B481DFF8B491C3460BF10F0ACDF800A090
:105C4000102208A95B46D9F8000025F01AFE0022B0
:105C5000014608F1100808AF914246D1CDF800A0E6
:105C60005B461022D9F8000018A925F013FE4FF06A
:105C7000000A834618AFD34541D1544B9845DAD139
:105C80000122514B1A704FF0810A4FF00008DFF8E3
:105C90005CB1A4F50627A7F550635B095BF82320E8
:105CA00004F01F01CA40D2073DD4494A52F82330BC
:105CB000CB40DB072AD5B8F1000F08BFA0468123EF
:105CC000A7F6FF47B7FBF3F303EBC313FF1A07F580
:105CD0000624BAF1010A04F55064DAD1039BBBB182
:105CE000B8F1000F14D0444619E057F8040BCDE981
:105CF0000612FFF725FF079A06990132ACE757F81D
:105D0000040BFFF739FF0AF1010AB4E7039B13B94B
:105D10006FF08B007EE7B8F1000F18BF4446349B4C
:105D200000201C6076E7329B13B10023329A136087
:105D30000EB1002333601023DFF8AC9000932A46A5
:105D400000232146D9F8000013F026FC60BB3299ED
:105D50002A68204BC9B99A4206D02146D9F80000DA
:105D600013F0B2FC0028D3D1D5E90223DDE90410F9
:105D7000834208BF8A42A2D1039B002BCFD06B681D
:105D8000012BCCD16FF0840044E7102032999A4265
:105D90000860E2D1002EE7D033462146D9F8000052
:105DA00018AA13F04DFC48B10B4B9842D5D00B4BC1
:105DB0009842D2D00A4B9842D6D029E7329A33681B
:105DC00012689B1A3360CFE7CA2D002000710800CB
:105DD00048170020105D175EFFDF00F011E000F0B3
:105DE000FEDF00F0006D0800A43000205C170020EA
:105DF0002DE9F04F87B08246894698461646DDF871
:105E000040B02AB1002B4FD040F26C739A424ED86A
:105E1000BBF1010F4ED8002406F1100739460120CE
:105E200005941DF0ECFB0546002846D021463A4675
:105E300026F059FC05ABCDE9014300942B46012225
:105E400050464946FFF7BCFE044680B110F18C0F66
:105E500008BF6FF08D043A460021284626F043FC27
:105E600028461DF0AEFB204607B0BDE8F08F144B6E
:105E7000C5E902A92B60C5F804B02EB132464146EF
:105E800005F1100026F04DFC059E0E483B462A46C3
:105E90003146006813F0E8FA18B93046FFF750FEB3
:105EA000D9E76FF09104D6E76FF08604DBE76FF077
:105EB0009104D8E76FF08504D5E76FF08C04D2E742
:105EC000105D175EA43000202DE9F0438DB08146AF
:105ED000DDE914780E4615461C469BB1B8F1000F5B
:105EE00005D16FF0860630460DB0BDE8F083002F77
:105EF000F7D0B7F1005FF4D3C3F1005303F5C0331B
:105F00009F42EED81022002108A826F0ECFB0022C8
:105F100007AB029305AB019306AB314600934846AD
:105F200008ABCDE90522FFF74BFE06460028DAD183
:105F3000059BA4B1AB4215D853EA0504D1D1069B09
:105F40000B48C8F8004000943A46079900682B4473
:105F500013F022FB002818BF6FF09106C3E7AB4295
:105F6000EDD2BEE75B1B9C4228BF1C46E7E700BFA3
:105F7000A430002030B58DB00C460546102200211B
:105F800008A826F0B0FB002207AB029305AB0193F3
:105F900006AB21460093284608ABCDE90522FFF762
:105FA0000FFE0446D8B9099B012B1BD0079D104B4F
:105FB0002946186813F088FBB8B90122A5F5062315
:105FC0000C49A3F550635B0905F01F00824051F8AE
:105FD00023004240284641F82320FFF7CDFD20460C
:105FE0000DB030BD6FF08404F9E76FF09104F6E76F
:105FF000A43000205C1700202DE9F04F93B0044638
:10600000DDE91E75DDE920689346DDE91C028A465C
:10601000DDF8889029B96FF08604204613B0BDE8FA
:10602000F08FBBF1000FF6D00FB9002DF3D108B9F6
:10603000002AF0D116B9B8F1000FECD1B9F1000F78
:10604000E9D02C4A934251D12388B3F5105F4DD14A
:106050002022002102A826F046FB202200210AA8C7
:1060600026F041FB02A81CF07CFB10B16FF09204FB
:10607000D3E720465A4651460AAB1CF09BFE044625
:106080000028CAD10A981CF089FE04460028C4D111
:1060900015B9C9F80050C0E7B74224D27B199E4217
:1060A00021D24545B7D839462A46304626F001FB6D
:1060B000374615F00F0AAED1CDE900762B46524691
:1060C0000AA902A8FFF700F807460028E1D04246D7
:1060D0005146304626F007FB012FC9F800A0C5D174
:1060E0006FF08B0499E74545E3D994E76FF0850499
:1060F00093E700BF004440042DE9F04FB3B00C46D5
:1061000005460021164602A8202298463C9FDDF84D
:10611000009126F0E8FA202200210AA826F0E3FAEE
:106120002022002112A826F0DEFA202200211AA83F
:1061300026F0D9FA00213C2223A8229126F0D3FA96
:1061400034B12EB127B13E9B13B1B9F1000F05D187
:106150006FF08604204633B0BDE8F08FB4F800B08D
:10616000B4F802A00BF4E043B3F5804FF0D0384B05
:10617000384A2B4043F01063934202D06FF08504FD
:10618000E8E70AF10703B8EBD30F4FEAD305DFD3F3
:106190003F9B9D4258D81AA81CF0E3FA10B16FF04B
:1061A0009204D7E7002301A91AA80193FFF7E8FAA0
:1061B0000028F4D1019B284A23F07F4393420193A6
:1061C000DCD947F212139B45D8D1BAF5807FD5D1DF
:1061D000224B01370A933D9B0D90023323F00303BA
:1061E0000F93402317936B000E971590139320463F
:1061F0004246314622AF02AB16971CF0DBFD044647
:106200000028A7D10C9B129043F400531AA80C93BA
:106210001CF0A7FA0028C2D112AB0AAA02A91AA838
:10622000FFF7BAF9064610B1482891D1A6E72A46E9
:1062300039463E9826F075FA3346BB550136402E56
:10624000FBD1C9F8005085E76FF0890482E700BFF1
:106250000000FFF60000020901020100200000809A
:10626000F8B5134642880C460732072A4FEAD20196
:1062700001D0A1424DD146680588C7682022184642
:10628000002126F030FA360A0346002E44D1002CB5
:106290003FD041F20102954205D0B5F5885F02D0AA
:1062A000B5F5905F02D15C60002011E0B5F5105F9C
:1062B00007D1182C03D0202C01D0102C29D11C6020
:1062C000F1E705F44F42B2F5824F02D06FF085003E
:1062D000F8BDEAB2122AF9D1202CF7D1104A25F0E4
:1062E000FF05B5F5E24F02600CD0B5F5824F10D135
:1062F0004FF4005217F4705F09D017F4864F04D0A2
:106300009A60E3E74FF48042F4E742F480629A60D7
:10631000CAE76FF08600DBE76FF08B00D8E700BFBD
:10632000200000802DE9F04F9A460388144603F4BC
:106330004F42B3B0B2F5824F0F46DDF8F89002D06D
:106340006FF0850056E011B96FF0860052E0002C26
:10635000FAD0B9F1000FF7D0DAB2122AF0D123F057
:10636000FF03B3F5E24F34D14388C9F800305BBB7B
:10637000E300C9F80030B3F5807FE1D1002318466F
:1063800055493D19214411F8016D15F8012D1043AF
:10639000921B0CBF4FF0FF360026AF4203EA060304
:1063A00043EA0203EFD10028CED0002BCCDA3C9B8D
:1063B0009C4200F28E8022463946504626F0B1F9C2
:1063C0003D9B00201C6015E0DA1DB4EBD20FD2D04B
:1063D000BAE7B3F5824F79D10B78042BB4D12022E0
:1063E000002101A826F07FF901A81CF0BAF920B11C
:1063F0006FF0920033B0BDE8F08F0090694601A8BD
:10640000FFF7BEF90028F3D1009B344A23F07F4305
:10641000934295D94FF000083E22414622A8CDF87C
:10642000848026F060F901234FF0420B2022414680
:1064300009A88DF88430651E26F055F97B1C2022B2
:10644000414611A80D9321AE0E9526F04CF920225D
:10645000414619A81596CDF858B026F044F9EA003F
:106460005208B2F5807FCDE91D6BC9F800200BD032
:1064700003D8E02A3FF464AF66E7B2F5C07F3FF48B
:106480005FAFB2F5047FF5E7154B09AA09931193A5
:106490004FF400530B934FF480431393402311A9FF
:1064A0001A9301A819ABFFF777F8D9F80030073332
:1064B000DB085A0033B1531E013B86F8008006F119
:1064C0000106F9D200283FF472AF3DE76FF0960065
:1064D00090E76FF089008DE76CE303000102010093
:1064E000200000802DE9F04F8FB0DDF860808146FC
:1064F0000C4692469B461A9FB8F1000F05D16FF0EB
:10650000860420460FB0BDE8F08F002FF7D000289A
:10651000F5D02022002106A826F0E5F806A81CF0F8
:1065200020F910B16FF09204EBE714F47C1FC4F370
:1065300005452AD0102DE2D8199B9D4233D81D4B1A
:1065400024F47E149C4231D1002302AECDE9023303
:10655000CDE9043352465B464946009606A8FEF74D
:106560000BFE044698B92A463146404626F0D9F833
:10657000234633550134102CFBD100243D6006A87E
:106580001CF0F9F80028BCD0CCE71025D4E721286E
:1065900006D0012814BF6FF092046FF08B04EEE771
:1065A0006FF08604EBE76FF08904AAE76FF08504CB
:1065B000A7E700BF0002C00370B50E4614460546AB
:1065C00010B96FF0860070BD0029FAD03822002182
:1065D00026F089F8094B24F47E129A420AD13388B6
:1065E000B3F5105F06D1C4F30543102BE9D80020A2
:1065F0002C60E8E76FF08500E5E700BF0002C0030C
:10660000F0B50F4616461D4604468BB088B302B956
:106610007BBB2022002102A826F065F802A81CF00E
:10662000A0F820B16FF0920420460BB0F0BD2368B3
:10663000114A23F47E13934215D135B9002402A8E0
:106640001CF099F80028EFD0ECE733463A46009565
:1066500002A9201DFEF772FE012807D00028EDD008
:106660006FF09204EBE76FF08804E8E76FF08B04BB
:10667000E5E76FF08604D7E70002C0032DE9F0419B
:106680008CB0884616461D460446129F002840D00E
:10669000002A3ED0002B3CD0002F3AD0102B0368AC
:1066A00028BF102513F47C1FC3F3054202D0954286
:1066B00028BF15461A4A23F47E1393422CD1202278
:1066C000002104A826F00FF8002304A8CDE9003328
:1066D000CDE902331CF045F840B96B46424604A9A7
:1066E000201DFEF7A7FD30B100233B606FF0920044
:1066F0000CB0BDE8F08104A81CF03DF80446002869
:10670000F2D12A466946304626F00BF820463D6015
:10671000EEE76FF08600EBE76FF08800E8E700BF78
:106720000002C0030023C36001F13803036120238A
:106730000A6843618B6D0B4922F47E128A424360E2
:1067400003D001F580718A4208D1102B01D0182B9B
:1067500002D1036000207047202BFAD06FF0880030
:10676000704700BF0001C00330B58BB06D46604C70
:106770000FCC0FC554F8043B68462B604FF07E6386
:1067800093F89C306D46FF2B08BF25238DF8013010
:10679000FEF7FCF83220FEF731F90FCC0FC50FCC15
:1067A0000FC594E8030085E80300524BD3F84C2151
:1067B000110340F18380A3F5FE431C884FF6FF735D
:1067C0009C4208BF81248DF81940FEF7ADF80444BF
:1067D00084F3080448488DF81840FDF747FA6846E6
:1067E000FDF7D6FF3220FEF70FF9444C4448FDF781
:1067F0007FFF4448FEF70EF91BF0D9FE236F0020FF
:1068000023F0070343F002032367236F23F450535D
:1068100043F4806323671BF0D1FE3B4BD3F8FC208D
:10682000D2014FD4D4F8803023F0030343F00203A5
:10683000C4F88030314BD3F8202122F0070242F017
:106840000102C3F82021D3F8802122F0030242F094
:106850000102C3F88021D3F8402122F0030242F064
:106860000202C3F84021D3F8602122F0030242F073
:106870000202C3F86021D3F8402222F0030242F062
:106880000202C3F84022D3F8002222F0070242F0AD
:106890000202C3F80022D3F8082222F0070242F0D5
:1068A0000202C3F80822FDF703FF4FF0E0220020A8
:1068B000136963F0040313610BB030BDD3F850418A
:1068C000E4B280E7D3F8FC2022F08072C3F8FC2009
:1068D000D4F8802022F0030242F00202C4F88020A3
:1068E000D3F8FC2042F08072C3F8FC20A2E700BF7E
:1068F0008CE303000080E00F00F0490200800050AC
:1069000000B4C404C0EA210100ED00E06FF004030C
:10691000502110B50A480B4C13F0800F03F101020F
:1069200006D123443D2A83F800131346F4D110BD49
:1069300003F00F03043B034419761346ECE700BF52
:1069400000ED00E000E100E0BFF34F8F0549064B8A
:10695000CA6802F4E0621343CB60BFF34F8F00BFFD
:10696000FDE700BF00ED00E00400FA05002807DBAA
:1069700001234109034A00F01F00834042F82130FF
:10698000704700BF00E100E0002808DB0122430956
:10699000034900F01F008240603341F82320704714
:1069A00000E100E00028ACBF00F16040064B4FEA78
:1069B0000111C9B2ABBF00F5614000F00F0080F8D3
:1069C00000131954704700BF14ED00E010B50446E1
:1069D0001BF07EFD024B1C601BF07EFD002010BDF5
:1069E0007017002010B51BF073FD034B1C681BF0E3
:1069F00073FD204610BD00BF70170020034B02221C
:106A0000186800238068194619F0E6BFAC310020F1
:106A100073B50024684600F0F1FA0C4B00981C6036
:106A20000B4B0C4D1C600C4E0C4B306018602C60F6
:106A30001CF003FE2046019B3268013BDB085380BB
:106A40002B6801332B6002B070BD00BF78170020A7
:106A5000741700207C170020841700208017002066
:106A60002DE9F04F0027924687B04A1C0E4614BF0E
:106A70000C46082499460597002B00F0B0801F6053
:106A8000002800F0AE80073020F007051BF027FD3E
:106A900005AB31460290009352463B46284600F033
:106AA000B7FA059E804606B130B902981BF01DFD6D
:106AB000192007B0BDE8F08FDFF83CB17788DBF82C
:106AC0000010FB00C0EBC7070139272FCBF80010DF
:106AD0006CD9BAF1000F48D1854205F1080740D0C2
:106AE000214630461CF027FD04460590059B1F44B7
:106AF00038461CF0A2FD059905F10F034A88C3F33F
:106B0000CF03D21A7A80CA88BB8062B3D31A9BB2F1
:106B100001EBC202FB8093808B88ED08A380BB88C9
:106B20000022314638466580E38000F0E9FA237898
:106B300043F001032370DBF800300133CBF8003061
:106B40002B4A02981368083443441360294A116899
:106B50008B4288BF13601BF0C8FC0020C9F80040BE
:106B6000A7E73446C2E7FA80D6E7F4192046039334
:106B70001CF063FD08F10702D20805996280FA1D36
:106B8000D208A280CA887AB1D200039BD01DC31A52
:106B90004344C3F3CF030A44E3809380A388013FB7
:106BA000FF084F80CB80C2E7E280F7E7BAF1010F20
:106BB00019D106F10803B3FBF4F204FB1233A3B1BD
:106BC000214630461CF0B7FC04462378012243F0EE
:106BD000010331462046237000F092FAB0E72220EC
:106BE00067E7212065E78542EAD13446EDE700BF3B
:106BF00078170020741700207C1700202DE9F34738
:106C00000446684600F0FAF9002C00F0C2801BF040
:106C100066FC14F8085CEB0704D534F806ECBEF10A
:106C2000000F05D11BF061FC012002B0BDE8F08728
:106C3000DFF870C134F8041CDCF800800EF10102AA
:106C400008F10103A4F1080692B2CCF80030002943
:106C500038D0A6EBC10393F800A0B3F806901AF061
:106C6000010F5F8805F0020520D105BBA9EB0701E4
:106C7000012927D80EF102021744BAB2CCF80080DD
:106C800034F8025C05BB14F8085C511E6FF3000574
:106C900004F8085C002589B224F8065C598019784C
:106CA00065F3000119700021D98031E055B111441C
:106CB0008AB214F8081C6FF3410104F8081C002183
:106CC0009980DDE73346DBE706EBC508DDE90071B7
:106CD0000F44B845D7D216F83560414616F0010684
:106CE0002ED014F8086C551E6FF3000604F8086CDB
:106CF000002624F8066C1C78ADB266F300045D80B3
:106D00001C70C3F107040C44C4F3CF04DC808C80F6
:106D1000214C216819B1994201D8498801B92360F1
:106D20001E4C216819B1994201D3498801B92360E9
:106D30001B490B689B1A0B601BF0D7FB002074E704
:106D4000A5EB0E05012DCCD8B8F80250A8F80260CA
:106D500001352A44B8F8065092B2C5B108EBC50116
:106D6000DCF80050013DCCF8005014F8085C6FF3DB
:106D7000000504F8085C002524F8065C541E5C80BD
:106D80001C7865F300041C700029BAD18BE72946F2
:106D9000E6E7222049E700BF841700208017002083
:106DA000781700207C1700202DE9F84F04460D4687
:106DB0009146002A00F017810023136040B9002992
:106DC00000F0138101462846BDE8F84F1CF0F3BBE4
:106DD00019B9BDE8F84FFFF711BF1BF080FB34F87D
:106DE000063C07354FEAC30825F00705A8450746C6
:106DF000A4F1080080F0848034F8022C002A65D0C9
:106E000000EBC20A10F83220D2075FD4BAF80210A1
:106E1000A8EB050616EBC10658D41F2E3DDDC5F3C1
:106E2000CF0304EB050B24F8063C013324F8023CA5
:106E300058461CF002FC34F8023CC6F3CF06ABF80F
:106E40000430BAF80630ABF802601BB3BAF802207F
:106E50009A1A1644B6B20AEBC303ABF806609E80DA
:106E600000225146584600F04BF950461CF0E5FB15
:106E7000C9F800405E4A13682B44A3EB0803136073
:106E80005C4A11688B4200D9136038461BF02DFB19
:106E9000002625E0ABF80630E2E7574E0B44326897
:106EA0009BB2013A32605A1C24F8062CBAF806202C
:106EB0004AB102339BB20AEBC20224F8023C93802F
:106EC00001225146CFE724F8022CF9E74A46002177
:106ED00028461CF070FB064628B138461BF005FB1F
:106EE0003046BDE8F88F42462146D9F8000025F02B
:106EF00018FC2046FFF782FE06460028BAD0ECE7D1
:106F00006ED934F8023CA8EB050B002B38D000EB0F
:106F1000C30610F83330DB0733D4C5F3CF0304EBDB
:106F2000050A24F8063C013324F8023C50461CF0C4
:106F300084FB738834F8022C03EBDB03AAF80420EB
:106F4000F2889BB2AAF80230BAB101339BB206EBC9
:106F5000C202AAF80630938050460022314600F063
:106F6000CFF830461CF069FB214BC9F800401A6885
:106F70001544A5EB08051D6087E7AAF80620EBE796
:106F80001E46BBF1270FEFD9C5F3CF0304EB050A6B
:106F900024F8063C013324F8023C50461CF04DFB1B
:106FA00034F8022CCBF3CF03AAF80230AAF804205D
:106FB00096B1F28882B101339BB206EBC206AAF801
:106FC0000630B3800C4A0021136850460133136029
:106FD000012200F095F8C7E70023AAF80630F1E790
:106FE000C9F8004051E722267AE7212678E700BF5A
:106FF00078170020741700207C1700200249034AEC
:107000000160521A42607047A832002000800120BF
:10701000F0B506460020059F4C1C08BF08213860CB
:10702000BAB91F480568002D38D0B5F802E0DB007A
:1070300003EBCE0EC1F1000C2878C0070BD52ABB9C
:10704000E888B0B105EBC005B5F802E003EBCE0E61
:10705000F2E71448E6E7B645F1D35AB905F108045A
:10706000B4FBF1F001FB1044A0190CB17045E7D856
:107070003D60F0BD08290FD06C88013405EBC404D5
:10708000A01B00EA0C00201A8645F1D2A88800282F
:10709000EFD0A5EBC005D7E73046E9E72846E8E79B
:1070A0008417002080170020134B13B51B6804467B
:1070B0000846FBB121B96846FFF7A0FF6CB90098FC
:1070C0000378D90707D55CB9C3889BB100EBC3002F
:1070D0000378DA07F8D402B010BD084B1868EFE760
:1070E000012C07D183882BB1A0EBC3000378DB0709
:1070F000F8D4F0E70020EEE77C170020801700208E
:10710000F8B5124F05460C463B68114EB2B1994294
:1071100009D041B13368994204D129460120FFF7D3
:10712000C3FF3060F8BD29460020FFF7BDFF33687C
:107130003860A342F1D0002CEFD0F3E799423368D6
:1071400008BF38608B4208BF3060EBE7841700202F
:1071500080170020BFF35F8F074B5A6A22F48032FA
:107160005A62D3F8942022F00102C3F89420BFF3AE
:107170004F8FBFF36F8F704700ED00E038B5FFF71A
:10718000E9FF284A2848D2F8C030284D23F0FF03F1
:1071900043F0A003C2F8C030254B04689D4204F1BF
:1071A00001011ED1234BC2F89840C2F89C3003F570
:1071B000BF3303F5FF73C2F8A0300160BFF35F8FE8
:1071C0000522184BC3F894205A6A42F480325A625E
:1071D000BFF34F8FBFF36F8FBFF34F8FBFF36F8F2F
:1071E00038BD23F01F03203BB3F1005F09D3C2F881
:1071F0009840104C43F00103C2F89C40C2F8A03004
:1072000001600D4B0168074A23F01F0343F003039D
:10721000C2F89810C2F89C30084B0131C2F8A03077
:10722000CBE700BF00ED00E08817002060300020B1
:10723000C02E0020030000207F300020E17F0120CD
:107240002DE9F0410D461146DFF8E080D8F8004006
:10725000B4F5807F34BF00271A27FFF77BFF1F2973
:107260002ED90021C2061CBF20F01F0020302E4E58
:10727000EB0618BF25F01F05CBB29C4235D8D6F8D7
:10728000C03020F01F0023F47F4343F48073C6F81E
:10729000C03040F003041BF022F9D8F8003025F08C
:1072A0001F0141F00301C6F89830C6F89C40C6F8AB
:1072B000A0101BF01AF9D8F800300133C8F80030DC
:1072C000BFF35F8F0522184BC3F894205A6A42F42B
:1072D00080325A62BFF34F8FBFF36F8FBFF34F8F70
:1072E000BFF36F8F3846BDE8F081C6F89830D6F806
:1072F0009C30D6F8A02023F01F03984222F01F02F2
:1073000001D195420BD0904201D89D4209D2D6F8C6
:107310009830013123F0FF03C6F89830ACE700271E
:10732000CEE72827CCE700BF00ED00E0881700205B
:10733000BFF34F8F0549064BCA6802F4E06213435E
:10734000CB60BFF34F8F00BFFDE700BF00ED00E053
:107350000400FA05054B1A782AB95B78002B0CBF9C
:107360000320022070470120704700BFD42D002069
:107370000329F8B598BF124B05460E468CBF002472
:107380005C5C032805D8DFE800F002080B0E44F02F
:1073900002040C4B1F684FB9F8BD44F00804F8E72D
:1073A00044F02004F5E744F08004F2E77B681A68B3
:1073B000144203D0314628465B6898473F68EAE7A5
:1073C000E0E30300B817002038B5104D2B78ABB1BF
:1073D0000F4C23781BB100F037FB002323700020F3
:1073E0001CF041F90B4C50B100F080FB002301214F
:1073F00020782B70FFF7BCFF0123237038BD0122DA
:10740000054B1A702278054B1A70F7E7D02D002033
:10741000CE2D0020D62D0020D12D0020D22D0020F1
:1074200010B51BF055F8064B04461B781BB1BDE8A0
:1074300010401BF051B8FFF7C7FF2046F7E700BF29
:10744000CD2D0020094A137830B101331370084B59
:107450001B78012B03D87047013B13707047054B15
:107460001B780BB9FFF7B0BF704700BFD42D0020C9
:10747000D62D0020D12D002070B51BF029F8174E15
:10748000054617481BF053FF3378D3B900F05EFC74
:10749000044620B128461BF01FF8204670BD114855
:1074A0001BF026F800F04CFF0F4B1C6000F036FD7F
:1074B0000E4B0F4A1860536F43F0010353671CF0E3
:1074C000D9F800F0C5F91CF0D0F80A4B0024186078
:1074D0000123284633701AF0FFFFDEE7D72D002086
:1074E000DCE30300B81700208C170020B41700203D
:1074F00000400050901700202DE9F843284A013839
:10750000135C39B1274F013339781354012904D85A
:10751000BDE8F883013B1354FAE7FFF71BFF01288E
:10752000044635D81AF0D4FFDFF88480054698F871
:10753000003013B31C4E33781BB9012232701B4A42
:107540001370DFF8709099F8003023B100F07CFAE6
:10755000002389F8003028461AF0BEFF01201CF0F5
:1075600082F81AF0B5FF337805461BB100F0BEFA79
:1075700000233370002388F8003028461AF0ACFF4F
:1075800038788442C4D02146FFF7F2FE3C70BFE752
:107590000329F5D10228F3D11CF06BF8F0E700BF06
:1075A000D42D0020D62D0020CD2D0020D12D00205F
:1075B000D02D0020CE2D002038B51AF089FF094BC0
:1075C00005461B78012B04D81AF086FF00242046BC
:1075D00038BD054B1C6800F0C7FA044428461AF071
:1075E0007BFFF4E7D62D00208C17002038B54160D2
:1075F00004461AF06DFF0546214604481AF07BFF49
:107600002846BDE838401AF067BF00BFB817002011
:10761000054B1B685843054B00F5742000F23F20D2
:10762000B0FBF3F0704700BFB417002040420F00DA
:107630002DE9FF47EFF3108772B6AFF300801AF021
:10764000A2FE002871D06D4EDFF8D481337823B1CB
:107650000020FFF7F7FE00233370FFF77BFE0446A0
:10766000002869D0841EE4B2012C6CD9FFF772FEA9
:1076700001280546624CDFF8AC9100F28E8020783C
:10768000A84205D099F80030002B00F0A5802570A5
:10769000207800F053FA99F8003013B1594B1B7859
:1076A0002370AFF3008007B962B6EFF3108772B6AC
:1076B000554B1A7852B100221A70524B20781B7821
:1076C000984203D101212170FFF752FE4F4800F08C
:1076D00077FB1AF067FE05460028B7D1DFF848812E
:1076E00098F80030A3B189F80000DFF8309199F8DC
:1076F00000301BB100F0A8F989F8005000201BF001
:10770000B2FF002870D000F0F1F9002388F80030B3
:10771000337823B10020FFF795FE0023337000215A
:107720002078FFF725FE00232370AFF3008007B910
:1077300062B604B0BDE8F0873378002B96D0FFF72F
:1077400081FE347092E7002003A900F087FB044615
:1077500000288BD1D8F80030039A9A4205D801202E
:10776000FFF770FE0123337080E7294B1D6800F09E
:10777000FBF9039B05449D42F1D200F00DFA820013
:10778000039942F0020292B2CDE900422346214A17
:10779000491B1E481BF07CFF68E7DFF88CA09AF8B5
:1077A00000300BB900F0E2F82078854203D099F858
:1077B0000030ABB125709AF80030002B7FF468AF31
:1077C000154B1B7823B900F039F90122134B1A70BD
:1077D00001238AF800305BE72946FFF7C9FD56E729
:1077E0002946FFF7C5FDE5E7012000F0A7F907B935
:1077F00062B6EFF3108772B680E700BFCF2D00208E
:10780000D62D0020D22D0020CB2D00209417002053
:107810008C17002021740100D32D0020CE2D0020D4
:1078200090170020D12D0020D02D002010B51AF087
:107830004FFE0022054B1C781A701AF04DFE00F026
:10784000BDFCE4B22043C0B210BD00BFCC2D00206F
:107850003B4A3C49136F70B503F007030B60D2F845
:107860000011394801F0030101603849384D896938
:10787000032BC1F34001297059D0D2F8203103F015
:107880000703981E43424341D2F88022314C02F054
:10789000010213434FF4C8702370FFF7B9FE0022B2
:1078A0002D4B2E4918602E4E0B680132D2B20A2A97
:1078B00046F8040BF9D1034400EBC00003440B600D
:1078C0002B78284D63B323781D4A3BB9D2F8003199
:1078D00003F00303591E4B424B412370D2F8003191
:1078E00003F00303022B24D0032B25D0012B17D147
:1078F000FCF7B6F9024698B1144B1B4EDC68002326
:107900001946C4F30B04013404EB84040138E4FB8E
:10791000060118F01BFEFFF77BFE2B6803442B606B
:107920001F20FFF775FE2B6803442B6070BD0123F9
:10793000AAE7FCF7F3F9DDE71AF0C2FDDAE700BFCA
:1079400000800050F4170020F817002000C00150FC
:10795000DB2D0020DC2D0020BC170020C0170020EC
:10796000C4170020F017002040420F00044B054AC6
:10797000D3F8203103F0070313601AF02EBE00BFC6
:1079800000800050FC17002008B50D4B1A7892B10A
:1079900000221A700B4A136F23F0070343F0010310
:1079A0001367D2F8203123F0070343F00403C2F831
:1079B0002031FCF73FF90122034B5A6708BD00BF95
:1079C000DA2D00200080005000E000500122154B0D
:1079D00010B55A67144B154C1B7813B302201BF0DB
:1079E000FCFEF0B100F06AFAD8B1A36DD90302D55C
:1079F000E36D9A0715D40D4B9B6DDB0711D4012263
:107A00000B4B1A701BF0C8FEBDE81040094B0A4A28
:107A10001860136F23F0070343F003031367FCF7A9
:107A200009B910BD00D00050DC2D002000C000506E
:107A3000D92D0020EC170020008000500122014BBE
:107A40001A707047DA2D0020F8B51F4B1B78002BF9
:107A500039D01E4C2378B3B91D4B9A6DD10302D592
:107A6000DA6D92072FD49B6DDB072CD41BF094FEAC
:107A7000184B194A1860136F23F0070343F00303F0
:107A80001367FCF7D7F81BF087FE124B134D1B68EA
:107A9000134EC01A2B78134F56F8232046F82300B4
:107AA000111A3A681048521A0A213A600932B2FB98
:107AB000F1F20133DBB20260B3FBF1F201FB1233EE
:107AC0002B7000232370F8BDDC2D0020D92D002061
:107AD00000C00050EC17002000800050D82D00207E
